:020000040000fa
:080000000002040000000000f2
:020000040000fa
:10000800c8020000e002000040030000f8020000ff
:100018001003000028030000400300004003000014
:1000280040030000400300004003000040030000bc
:10003800f42d0000400300004003000040030000ce
:10004800400300004003000040030000400300009c
:10005800400300004003000040030000400300008c
:10006800400300004003000040030000400300007c
:10007800400300004003000040030000400300006c
:10008800400300004003000040030000400300005c
:10009800400300004003000040030000400300004c
:1000a800400300004003000040030000400300003c
:1000b800400300004003000040030000400300002c
:1000c800400300004003000040030000400300001c
:1000d800400300004003000040030000400300000c
:1000e80040030000400300004003000040030000fc
:1000f80040030000400300004003000040030000ec
:1001080040030000400300004003000040030000db
:1001180040030000400300004003000040030000cb
:1001280040030000400300004003000040030000bb
:1001380040030000400300004003000040030000ab
:10014800400300004003000040030000400300009b
:10015800400300004003000040030000400300008b
:10016800400300004003000040030000400300007b
:100178004003000040030000381000004003000066
:10018800400300004003000040030000400300005b
:10019800400300004003000040030000400300004b
:1001a800400300004003000040030000400300003b
:1001b800400300004003000040030000400300002b
:1001c800400300004003000040030000400300001b
:1001d800400300004003000040030000400300000b
:1001e80040030000400300004003000040030000fb
:1001f80040030000400300004003000040030000eb
:1002080040030000400300004003000040030000da
:1002180040030000400300004003000040030000ca
:1002280040030000400300004003000040030000ba
:1002380040030000400300004003000040030000aa
:10024800400300004003000040030000400300009a
:10025800400300004003000040030000400300008a
:020000040000fa
:100400000fb221000eff2d000e0188000000000039
:100410000c00070040f42200010020000f0007003c
:10042000000020000000e000020032000000020096
:1004300000000000e22c0200000000000040da0092
:100440000000fe00a03220000000e00002003200a8
:10045000002020009001880000000600a102880012
:10046000800078000000eb001a003700e2804000b6
:1004700054a0b4009101ba00e280400054a0b4003e
:100480009102ba00e280400054a0b4000002eb00e8
:10049000472bde00f507b200a6018800602ce100c2
:1004a00008003a000049eb000201e80002003900b0
:1004b0003420ec0002f0a0008301e900f9ff3e00c7
:1004c000040037006128e100010032000082eb00e7
:1004d000040007001101ba000200e000e3ff3a0047
:1004e0000000060004d0a300e20f49001c00390000
:1004f000810278003549ba000201e80002003900a3
:100500003420ec0002f0a0008301e9000f0032006b
:100510002549ba000201e800020039003420ec004d
:1005200002f0a0008301e900080032000400e000ae
:100530000600320015c9ba000201e80002003900c5
:100540003420ec0002f0a0008301e9008180e80083
:1005500054a0b4000300e000e2ff3a0000000600ef
:100560009102ba00055978008301e900f7ff3200d3
:10057000c82ade00055978008301e900f3ff320044
:100580000400e000f1ff320011d9ba00eeff37009d
:100590003600f800809fbe00829fbe00849fbe0090
:1005a000869fbe000000fa00c028a900a0ec280029
:1005b000801f7800760007008f87e900ffff370073
:1005c0003600f800809fbe00829fbe00849fbe0060
:1005d000869fbe000000fa00c068a900c0ed280098
:1005e000801f78006a0007008f87e900ffff37004f
:1005f0003600f800809fbe00829fbe00849fbe0030
:10060000869fbe000000fa00c048a900c0ee280086
:10061000801f78005e0007008f87e900ffff37002a
:100620003600f800809fbe00829fbe00849fbe00ff
:10063000869fbe000000fa00c088a900a0ef280035
:10064000801f7800520007008f87e900ffff370006
:100650003600f800809fbe00829fbe00849fbe00cf
:10066000869fbe000000fa00c0a8a90070f0280014
:10067000801f7800460007008f87e900ffff3700e2
:100680000040da000000fe003200f80001c0fe0069
:100690004600f8005000f8000220200032028800d6
:1006a00002002800130020008019dd000281710083
:1006b00082028800010078000101780026002000f5
:1006c000470020008301e9000380080007000000c4
:1006d0000110e100040034001102be00920878000d
:1006e000e2307b000489be00878040001219780048
:1006f0005000f9004600f9003200f9000000060041
:100700003200f80001c0fe00821f7800849fbe0006
:100710008a1f78004400f800040f2000240288009b
:10072000010578000601c3000080e9000080080090
:1007300003000000000000000505f0000401f100c6
:100740003200cd000505f0001001f1003200cd00af
:100750004400f9004f0578004f02be004f007800ba
:100760003200f900000006000000fa008001780065
:100770000200370081597800040178000202e90084
:10078000e00f5100fbff3a000080fa000000060075
:100790000000fa0068015700ceb89700809c210045
:1007a000020007000080fa00000006003600fa0090
:1007b000889fbe008a9fbe008c9fbe006017980075
:1007c00001179800620f98000000eb005017980086
:1007d000e50237008e1090008100e80001179800b4
:1007e00052c2b300824f500006003a008046eb0030
:1007f00003c3b30065415100b1c2b3000e109000b5
:1008000011003700ee119000330190000204b20095
:100810000400320013017800004978008209e800e2
:10082000050037000000fb00ee109000d902070021
:10083000e10f4000cc023200de1290008502e80099
:1008400055179800c802370010427800d6c2b3008e
:10085000864f52000b0032008002e800864f5200a3
:1008600005003c00824f520009003200814f5200c7
:100870000e003a0008003700834f52000b003a0088
:10088000070037000d34a0000000e800eeff37003d
:100890000d04a000030037000d14a0000100370074
:1008a0000d24a00005007800e7ff3700001798002e
:1008b00062816600010032000d04a10068816600bb
:1008c000010032000d24a1000401fb000203b1006d
:1008d000e90f51000d003e008004eb008e109000e7
:1008e000ea48b80009fd2f00808444001100fb0095
:1008f000808444005100fb000003b100e90f500068
:10090000f7ff3600011798000a0037008004eb005b
:10091000a2c2b300824f520006003a006e0c900053
:10092000c8047800680f98000e1590000a05e800ca
:100930000a1798008005eb007b0f9800e2c2b30015
:100940000e1690009c4f11001c003a0064415100ab
:100950000c06e8000c1798001c407800824f5000ed
:100960000d003a00ee08900041017800610f9800f8
:10097000720f98008c0178008301e800031798003b
:100980000e003700ea18b8000003b10081014000f2
:100990000201e80002003700fe0990000e119000ed
:1009a0009200fb0000fd2f0001004000e90f500005
:1009b000f4ff3600730f98000217980035c6b30095
:1009c000c1c6b3008e11900033427800044f780006
:1009d00036c7b300864f52001a00320008003c00b0
:1009e000854f520092003200814f52000c003200bd
:1009f00003179800e04f520060023200aa0037004f
:100a00000317980052c7b300824f5200aa00320069
:100a100063414100824f5200a3003a0006003700b4
:100a2000708166000040eb0001003a0000c1b30095
:100a300080c67600e4ff37000d4078000074a00007
:100a40009f003700031798006e0c90004802780052
:100a5000680f980014179800e00f520002003a0047
:100a60002b9e21001b1798000006eb002c17980006
:100a7000020037008100e80021179800ae109000b6
:100a80001e119000028040008041eb0090cf1100c9
:100a9000f8ff3a00fe0a9000e08f52000500320095
:100aa0002e139000868f520002003100050478005a
:100ab000281798002e1290000006eb00848f540037
:100ac0000100360004865400e886660031003a00d2
:100ad0000c01780008c2b300ee149000100037003b
:100ae000390090000004b2000400320019007800c0
:100af00008487800800ce80005003700890078007d
:100b00000002200023020700e10f40000300320032
:100b10005e1590000a05e8005a1798000c0178004d
:100b20000c06e900e00f5100edff3a001900370014
:100b3000340090000004b2000900320094017800f3
:100b4000080178003240780080497800030ae80004
:100b500002047800e04f50000a003a00120037000b
:100b6000080178003200fb0002047800840078005d
:100b7000241f9800070207002e1a9000e10f400082
:100b8000090032005e1090000000e8005017980045
:100b9000050037001e149000ae1490003e15900022
:100ba000ce1590006e129000090078008004e900d4
:100bb000e00f5000deff3a00181798002917980040
:100bc0003a1798004b179800e08f5600e601320064
:100bd00011003700380090000004b2000400320019
:100be000180078000d487800000ce8000500370078
:100bf0008800780000022000e6010700e10f4000b5
:100c000003003200de1090008100e80051179800c8
:100c100009067800020037000dc2b3006e14900080
:100c20008c04e900e00f5600eaff3a00ce013700dd
:100c3000031798006e09900042027800620f980036
:100c4000cfa2de0005037800860378000400be0012
:100c50000601be004800de00480cdd000000740004
:100c6000004f78007084660009003200e04f5000a9
:100c700007003200e14f40000500320010479800a5
:100c8000244798002a0020002a1798000300370004
:100c9000144798001b0020002b1798000e06e80050
:100ca0001c1798007bff37001e17980011002000ca
:100cb0002117980077ff370000ccb30000c0760002
:100cc0000080fb00500f9800700160002207980020
:100cd0000e0032006e0e90004c05be006c0f9800a6
:100ce0007a0798000b0f98000000eb00100f980097
:100cf0008000eb00210f98007e0090008e0890008d
:100d00001e099000ae09900007003700ee08900021
:100d100041027800610f9800040078000100200073
:100d200002002000030020001017980021179800ef
:100d30003217980043179800fe089000e08f50008b
:100d40000d003a0012002000720f98001e10900053
:100d5000ae1090003e119000ce119000e00f5000b8
:100d6000e08f5800e00f5900e08f59000200320078
:100d70008000eb00710f98005e099000020cb20039
:100d8000320f980004082000840f51001b0032002d
:100d9000040c2000840f510037003a0010c0b3004b
:100da000004f780005842100090378000f00370008
:100db0000400fb004300dd00008042005001be0043
:100dc0004000be001e149000ae1490003e1590002e
:100dd000ce1590000040e10001c8e10002d0e10022
:100de00003d8e10021003900044fe8001e427800da
:100df000f44f5200eeff3a001c00370010c0b30061
:100e0000004f780004012000050020006033b80086
:100e100009017800110037001e149000ae149000f4
:100e20003e159000ce1590000440e10005c8e10099
:100e300006d0e10007d8e1000e003900490020008b
:100e40000402d0008582d2000683d2008783d200bc
:100e50008904e900faff3a00004fe8001e407800dc
:100e6000f04f5000ecff3a00020037008604780093
:100e700001003700820478001e02fb007e0d900006
:100e80008a0f520002003d000a4f7800040037002c
:100e9000fe0d9000848f550001003d00740f9800f6
:100ea000e08f5400040032005e0e90006302660082
:100eb000010032008904e9001e02fb000000eb0083
:100ec000400f9800848f54000200340004825400c4
:100ed000440f9800de089000e48160004900320071
:100ee000e281600061826000e08f510019003200f1
:100ef0006e119000b20190000304b20009003200ac
:100f000092027800b3c2b300e00f52000100320039
:100f100083c1e800834a7800ee1190008509e8005b
:100f200008003700d0022000e00f520001003a0014
:100f30000080e900ee10900016010700e10f40006c
:100f400017003200de1290008502e8005517980065
:100f500013003700e00f5200110032006e139000b2
:100f6000b60190000304b20005003200960178003b
:100f700000c2b30080497800030be8000500370089
:100f8000ee1090000002200002010700e10f400077
:100f9000030032005e1490000804e800581798001f
:100fa000ce0c9000e08f5400ca00320008c3b3009a
:100fb00009067800de169000ee14900039009000cb
:100fc0000004b200040032001900780008487800dc
:100fd000800ce8000500370089007800000320003d
:100fe000ec000700e10f4000010032008d06e80030
:100ff0000c06e900f1ff3a004c0f98005d179800cd
:10100000b40037004e0d9000e00f5500180032007c
:10101000de0d9000e881650015003a0008c2b300bb
:101020000a067800de169000ee1490003900900059
:101030000004b2000400320019007800084878006b
:10104000800ce800050037008900780000022000cd
:10105000d0000700e10f4000010032008d06e800db
:101060000c06e900f1ff3a004c0f98005d1798005c
:101070005e0e9000e201660061026600e08f5100a2
:10108000190032006e109000b00190000304b2000d
:101090000900320090027800b3c2b300e00f5200a2
:1010a0000100320083c1e800834a7800ee1090000e
:1010b0008508e80008003700d0022000e00f520049
:1010c00001003a000080e900ee109000b100070036
:1010d000e10f40007f0032005e1190000201e80045
:1010e000521798007b003700e00f52007900320061
:1010f000ee129000b50190000304b200050032002a
:101100009501780000c2b30080497800830ae800a6
:1011100005003700ee109000000220009d0007003f
:10112000e10f40006b0032005e1390000603e80000
:1011300056179800670037007e0c90000804e900fd
:10114000780f980000082000be0c9000808f54009b
:1011500033003200000c2000808f540040003a0021
:10116000080578004350dd00ae059000e08f550083
:101170001a0032000406be000184210000804000f5
:101180003004be002005be000801be000400be0001
:1011900038010700004f78000000fb00cf80de0020
:1011a0000801be00430107000001560081815e0076
:1011b00032079800430798008001eb00530798001e
:1011c0008002eb00650798003e029000ce0290007e
:1011d0005e039000ee0390000e00370008842100ab
:1011e0000000440010017800811f78001100090000
:1011f0000282d800cf007800a2002000811f780072
:10120000110009000280d80001007800cf007800aa
:10121000004f780009c3b3001ecf44001000370010
:101220007e0d90004250dd000605be000404be00a5
:10123000000678000c06e900050033008b05d1009c
:101240000a85d3008984d3000884d300f9ff3700ce
:101250006f006400919e210001004000104f780053
:101260006e119000320090000004b20008003200bd
:10127000120178001e40780000497800ee119000bd
:101280008209e800e04f50000e003a0015003700d8
:101290001e00fb00ee109000241f980075179800a8
:1012a000061f9800171f98003a0007002e1a90009a
:1012b000fe1290000e1b90009e1b9000e10f40005c
:1012c000080032005e1490000804e80058179800e7
:1012d000040037001e129000ae1290003e139000e2
:1012e000ce139000fe0c9000e08f540092ff3a0065
:1012f000141798002517980036179800471798007c
:10130000de08900068806000170032004e099000ef
:10131000e00f51001400340008c2b3000206780048
:10132000de169000ee149000390090000004b20028
:10133000040032001900780008487800800ce800aa
:101340000500370089007800000220001100070026
:10135000e10f4000010032008d06e8000c06e900b4
:10136000f1ff3a005d1798008e119000134078004d
:10137000004f7800e04f500016fd3a005e109000dc
:101380004f06be004f05be004f04be000080fa00ad
:10139000000006000000fa00889fbe0001047800eb
:1013a000b8009000628160008084eb003c00320055
:1013b000810178000320b2001801900002003a0079
:1013c000e00f510036003a000190a000310498006f
:1013d00080047800f90fb200e00f510002003a00db
:1013e00028009000000c7800ea8f540006003a00b4
:1013f000010078000008b20003003a00880078007d
:10140000d0002000e3ff070018009000d8009000f3
:10141000810f50000b0032000000e800100498001b
:101420001800780009487800000ce80010c0b300ec
:1014300041b1210080487800ea8f540018003a003a
:101440000500370088007800094078001800070080
:101450008004780012003700380090000010b200bd
:101460000f00320018019000a80090004800900082
:101470005100070098009000810f500004003200d6
:10148000380090000003b300300498008084eb0023
:101490000000eb001004980028009000000c780079
:1014a000090078004f04be000080fa00000006002a
:1014b0000200fa00889fbe00004f78000104780007
:1014c00038009000800078000104b20032003a0039
:1014d000e200600005003a000003b3003004980009
:1014e000110498000080eb002c003700d804900015
:1014f000e08f540006003a00120020008e007800b1
:10150000480090002c0007001904980022003700c2
:10151000a8009000e08f500008003a0071b121004f
:1015200021049800010c780021002000510498004b
:10153000110498000030a0003004980018019000b9
:10154000a8009000480090001b00070028009000b1
:101550008080eb00110498001e487800000ce80021
:10156000a0c0b3009e4f10000b003a00380090005e
:101570000010b2000800320018019000a80090008e
:10158000480090000c0007000000eb0010049800d9
:1015900028009000000c78001e00fb004f04be00e5
:1015a0000080fa00000006000000fa0000c0da0027
:1015b0000080fa00000006000a00fa00e20f500066
:1015c00021003e00f0d88000e10f500006003200fc
:1015d0008523200044232000232320000023200013
:1015e000e08f520004003a008522200044222000af
:1015f0002322200000222000060028009003630020
:1016000002003a00870a78001008730000402000aa
:101610001300600001003a0013a0a000020078004f
:1016200006003700930278000510b200fdff32007b
:10163000b102fb00050a78000000e900e00f50004d
:10164000f8ff3a000800370033002000030f78004d
:101650001007980021079800320798000e007800c4
:10166000d1ff07003e019000020078000080fa00e0
:10167000000006006022b800060220000000d00032
:101680008180d2000482d2008582d2000000a000b6
:101690000202520083825a0003003100020242001b
:1016a00083824a000000a1000603e900f3ff3a002c
:1016b00000000600020ab900001bb9000200b800d1
:0c16c00081004200810043000000060091
:020000040000fa
:1016cc000600fa000000eb00000f78000004210077
:1016dc0010079800004421002007980090d8800043
:1016ec00f00fb000000040008000780000042100e2
:1016fc000080400010079800e0832100200798002c
:10170c0090d880007000400090d8880091d880005c
:10171c00f0102000808f5000020034000000eb001d
:10172c0090d8880000102000000f78000e003700c1
:10173c001e009000900078002e00900001087800a8
:10174c001e0090000080e900100798002e00900009
:10175c008000eb00110098002e00900064005000f7
:10176c00200798001e0fe9001e007800e00f5000c3
:10177c00efff3c00002020008000780000c0280013
:10178c0081017800000178000144210080002000d4
:10179c00351107000144210080002000b7fb070031
:1017ac00024421000144210000102000d1fb07005d
:0817bc000080fa0000000600a5
:020000040000fa
:0817c400e0d8880000000600d7
:020000040000fa
:10180000ff7f000000000000f67f0000dcfc00000d
:10181000d97f0000b8f90000a77f000095f600000e
:10182000627f000074f300000a7f000055f00000a2
:101830009d7e000038ed00001e7e00001eea0000c4
:101840008a7d000007e70000e47c0000f4e300006c
:101850002a7c0000e6e000005d7b0000dcdd00008b
:101860007d7a0000d8da00008a790000d9d700001c
:1018700084780000e1d400006c770000efd1000014
:101880004276000004cf00000575000021cc000066
:10189000b673000046c900005572000073c6000010
:1018a000e3700000a9c300005f6f0000e9c0000002
:1018b000ca6d000032be0000246c000085bb000031
:1018c0006e6a0000e3b80000a76800004cb6000094
:1018d000cf660000c0b30000e864000040b1000023
:1018e000f2620000ccae0000ec60000065ac0000cd
:1018f000d75e00000aaa0000b45c0000bda700008b
:10190000825a00007ea50000435800004ca300004e
:10191000f655000029a100009b530000149f000011
:10192000345100000e9d0000c04e0000189b0000c6
:10193000404c000031990000b44900005997000064
:101940001d470000929500007b440000dc930000de
:10195000ce41000036920000173f0000a190000029
:10196000573c00001d8f00008d390000ab8d00003a
:10197000ba3600004a8c0000df330000fb8a00000a
:10198000fc300000be890000112e00009488000089
:101990001f2b00007c8700002728000076860000af
:1019a000282500008385000024220000a384000075
:1019b0001a1f0000d68300000b1c00001c830000cf
:1019c000f918000076820000e2150000e3810000b3
:1019d000c812000063810000ab0f0000f780000018
:1019e0008c0c00009e8000006b09000059800000f4
:1019f0004806000028800000240300000a80000040
:101a00000000000000800000dcfc00000a800000f4
:101a1000b8f900002880000095f600005980000009
:101a200074f300009e80000055f00000f780000075
:101a300038ed0000638100001eea0000e381000031
:101a400007e7000076820000f5e300001c83000039
:101a5000e6e00000d6830000dcdd0000a384000087
:101a6000d8da000083850000d9d700007686000010
:101a7000e1d400007c870000efd1000094880000d2
:101a800004cf0000be89000021cc0000fb8a0000ca
:101a900046c900004a8c000073c60000ab8d0000f0
:101aa000a9c300001d8f0000e9c00000a190000044
:101ab00032be00003692000085bb0000dc930000bf
:101ac000e3b80000939500004cb600005a97000060
:101ad000c0b300003199000040b10000189b000025
:101ae000ccae00000e9d000065ac0000149f00000d
:101af0000aaa000029a10000bda700004ca3000015
:101b00007ea500007ea500004ca30000bda700003c
:101b100029a100000aaa0000149f000065ac000083
:101b20000e9d0000ccae0000189b000040b10000ec
:101b300031990000c0b300005a9700004cb6000075
:101b400093950000e3b80000dc93000085bb000023
:101b50003692000032be0000a1900000e9c00000f3
:101b60001d8f0000a9c30000ab8d000073c60000ec
:101b70004a8c000046c90000fb8a000021cc00000e
:101b8000bf89000004cf000094880000efd100005e
:101b90007c870000e1d4000076860000d9d70000e1
:101ba00083850000d8da0000a3840000dcdd00009b
:101bb000d6830000e6e000001c830000f5e300008f
:101bc0007682000007e70000e38100001eea0000c3
:101bd0006381000038ed0000f780000055f0000040
:101be0009e80000074f300005980000095f600000c
:101bf00028800000b8f900000a800000dcfc00002a
:101c000012010000000200000200000000080000b5
:101c1000d80400000a0000000001000001020000da
:101c20000001000009020000430000000201000062
:101c300000c00000320900000400000000010000a4
:101c40000202000001000000052400000010000056
:101c50000104000024020000020500002406000028
:101c60000001000005240000010000000107000041
:101c700005810000030800000002000009040000c4
:101c800001000000020a0000000000000007000040
:101c900005020000024000000000000007050000ef
:101ca0008202000040000000000000000403000069
:101cb00009040000340300004d000000690000002a
:101cc00063000000720000006f000000630000006d
:101cd00068000000690000007000000020000000a3
:101ce0005400000065000000630000006800000070
:101cf0006e0000006f0000006c0000006f0000002c
:101d0000670000007900000020000000490000008a
:101d10006e000000630000002e000000340300008d
:101d200043000000440000004300000020000000c9
:101d300052000000530000002d000000320000009f
:101d400033000000320000002000000045000000c9
:101d50006d000000750000006c00000061000000d4
:101d600074000000690000006f0000006e000000b9
:101d70002000000044000000650000006d0000002d
:101d80006f000000128e0000568e00005a8e000078
:101d90008e8e00004f730000636900006c6c0000c1
:101da000617400006f72000020460000616900004d
:101db0006c210000210000004164000064720000fa
:101dc000657300007320000045720000726f000010
:101dd00072210000210000005374000061630000c4
:101de0006b20000045720000726f0000722100003d
:101df000210000004d6100007468000020450000d3
:101e0000727200006f720000212100000044000087
:101e10004d4100004320000045720000726f000039
:101e2000722100002100000042750000747400005f
:101e30006f6e000020500000726500007373000098
:101e400065640000202d00002d2000000d0a000018
:041e5000000000008e
:020000040000fa
:101e54000200fa00a171800080ff2f000080600062
:101e6400a07188008171800080ff2f0000806000d5
:101e7400807188002ac8a900f00f2000202688005d
:101e8400f00f2000002688000000eb0000278800e7
:101e9400420020008000eb00204e200031fa0700b1
:101ea4000000eb00e0268800f009200030268800be
:101eb400f0092000102688009004a80000a021004a
:101ec4004800de00702688000040eb00004f7800d8
:101ed4000a0037009e4078000180fb00c300dd004b
:101ee40000a02100008240006000b8006011b8002a
:101ef400009abe000292be001e4fe8001e40780009
:101f0400eb4f5000f3ff3600ca24a8000000eb009a
:101f140060268800caa4a900ca24a90010003700ba
:101f24008000200000268800419821000040eb003a
:101f340080487800a19821000040eb008048780098
:101f4400b19821001140780060406000804878001a
:101f5400c1982100114078006040600080487800fa
:101f64000026800068006000e00f5000ecff3a009b
:101f74001000200020cd88001000200030cd880003
:101f84000000eb0040cd88000000eb0050cd88003d
:101f94000000eb00a0cc88000040eb00004f78006c
:101fa4001b0037009e4078000180fb008000400049
:101fb400a0972100008040008000eb000108780019
:101fc4009e4078000180fb00800040004097210083
:101fd400008040008000eb00010878009e407800fb
:101fe4000180fb00a1992100808040000040eb00ab
:101ff400804878009e4078000180fb00d199210040
:10200400808040000040eb00804878001e4fe800cc
:102014001e407800e24f5000e2ff360000a121008c
:10202400d0cb8800d000200000278800c09a21006f
:1020340020d0880011d0800000c02f0000806000f4
:102044000030a00010d088004008200000d0880094
:10205400c19621000040eb00804878000000eb00ae
:1020640050cb88000080fa00000006003600f8001b
:10207400809fbe00829fbe00849fbe00869fbe00dc
:102084003200f800002020009001880000000000c9
:102094000200fa0050cb8000e10f500006003a0025
:1020a400f00f200000268800c204a800c284a80003
:1020b4002000200050cb8800402480007000600085
:1020c400e00f5000070032005024800070006000d0
:1020d400e00f50000300320000012000402488007b
:1020e400bd0607008024800062006000e00f5000fd
:1020f400020032000ac8a900a800370000268000a8
:1021040061006000e00f50000a00320010268000d9
:1021140061006000e00f5000060032004cff070031
:102124002ac8a8004000200050cb880010002000de
:10213400002688000026800070006000e00f500038
:10214400070032001026800070006000e00f50008d
:1021540003003200940607000001200000268800d6
:102164000026800064006000e00f50001800320078
:102174001026800064006000e00f5000040032006c
:10218400120020008000eb0030072000000d070043
:102194004000200000268800009a210010407800aa
:1021a400e04f500005003200009a210010407800f2
:1021b4000040e900019a210080487800009a21003b
:1021c40010407800e04f500001003a00ca020700b6
:1021d400012680000008200000806000e00f50000d
:1021e40006003200112680000008200000806000f4
:1021f400e00f500001003200420607000026800074
:1022040062006000e00f50000c00320010268000d5
:1022140062006000e00f500008003200120020004d
:102224008000eb00f0ff2700d90c0700f00f20001e
:1022340020268800200020000026880050cb800043
:10224400e30f500002003e000ac8a9005300370003
:102254001026800068006000e00f50004e0032003d
:102264000040eb00004f7800460037000026800055
:1022740068006000e00f50004600320040268000f5
:10228400004078006199210080487800609921001d
:10229400904078000180fb004400de00004078009c
:1022a4007199210080487800800020000026880071
:1022b400609921001040780068406000e04f5000b1
:1022c40013003a0070992100104078000081fb004f
:1022d4008080fb00d099210000804000904078006d
:1022e40061c060000004a20061406000d199210037
:1022f400810141006140600013417800e1cfb300e7
:102304008140610000c070008049780012003700ed
:1023140070992100104078000081fb008080fb0050
:10232400a0992100008040009040780061c06000c6
:102334000004a20061406000a199210081014100d4
:102344006140600013417800e1cfb3008140610037
:1023540000c0700080497800709921001040780016
:10236400e04f500002003a0027060700040037003f
:102374000001eb006199210020072000840c070074
:102384001e4fe8001e407800e34f5000b7ff3600b0
:1023940001003700000000000ac8a9000080fa000c
:1023a4003200f9004f03be004f02be004f01be00d1
:1023b4004f00be003600f900004006000400fa0099
:1023c40020479800314798003e4090000080fb0071
:1023d40068006000e00f5000030032008040eb0012
:1023e4002e409000040307003e4090000080fb0054
:1023f40064006000e00f50000300320011c0b3001d
:102404002e409000fc020700014e20002e40900058
:102414000080fb0000004000008f40001e00780098
:10242400be409000014878000080fa0000000600d9
:102434000800fa00204798003147980022079800c6
:10244400634798003e409000e04f50000700320080
:102454002e4090000080fb0080004000a0972100e7
:1024640000804000100f7800060037002e409000d6
:102474000080fb0080004000409721000080400065
:10248400100f78001e007800e00f500002003a00a0
:102494000000eb006b0037002e0190001e00780056
:1024a400f10f200081016100c0409000e0c0600095
:1024b40083c07000414098004811de00d040900075
:1024c400e0c0600082c07000514098006e409000ef
:1024d4008080fb00f03f2000808060001e007800b8
:1024e400f20f200082816000204190006041610071
:1024f4000341710022409800c808de00e3806000b8
:10250400e3c06000b0419000c2cfb30002c16100db
:1025140081407100314098001e007800104178001d
:102524008280fb00104090000080fb004800dd002a
:102534000100700080007800000420000081600029
:102544001e007800f10f20008101610090407800a6
:10255400e0c0600083c07000014878004811de00cc
:1025640090409000e0c0600082c07000114098006c
:102574001e007800104178008280fb00104090001b
:102584000080fb004800dd0001007000800078003e
:1025940080082000008170001e007800f10f2000e8
:1025a4008101610090407800e0c0600083c0700049
:1025b400014878004811de0090409000e0c06000bf
:1025c40082c07000114098003e409000e04f5000df
:1025d4000e003200a19721002e4090000080fb00e5
:1025e4000000400080804000a29721002e4090000f
:1025f4000080fb0000004000000041001040780013
:102604000034a200804878000d0037004197210073
:102614002e4090000080fb000000400080804000bd
:10262400429721002e4090000080fb0000004000f3
:1026340000004100104078000034a2008048780077
:102644001e0078000080fa00000006000400fa0072
:1026540020479800314798002e409000e04f5000ea
:1026640029003a0090cb8000a0409000e0c06000b8
:102674000134a0002140980030419000c1cfb30044
:10268400814061003140980090cb8000c29a2100c3
:10269400f10f200081016100c0409000e0c06000a3
:1026a40083c07000414098004811de00d040900083
:1026b400e0c0600082c070005140980090cb800060
:1026c4009040780060c16000c1c8b30081407100cf
:1026d4000148780090409000e0c0600011409800ec
:1026e400d0cb80009040780060c1600041c8b30046
:1026f400814071000148780090409000e0c0600083
:1027040011409800420037002e4090000080fb00ea
:1027140000004000800078003e4090000080fb00f4
:10272400008040004400dd008000780000a021000b
:10273400008f40001e007800104178008280fb006a
:10274400104090000080fb004800dd000100700094
:102754008000780040082000008170001e0078008e
:10276400f10f20008101610090407800e0c060001a
:1027740083c07000014878004811de00904090004a
:10278400e0c0600082c07000114098002e409000ac
:102794000080fb0000004000800078003e40900074
:1027a4000080fb00008040004400dd00e8004000a1
:1027b40000a02100008f40001e0078001041780026
:1027c4008280fb00104090000080fb004800dd0088
:1027d4000100700080007800400820000081700033
:1027e4001e007800f10f2000810161009040780004
:1027f400e0c0600083c07000014878004811de002a
:1028040090409000e0c0600082c0700011409800c9
:102814000080fa00000006000200fa00889fbe0053
:102824008a9fbe00004f78005126800000022000dd
:1028340000806000e00f5000030132009e407800e9
:102844000180fb0080004000a09721000080400030
:10285400100278001e4178000280fb0080004000d6
:10286400a0972100008040009002780095417800f4
:102874008383fb00154390000683fb004833dd008f
:102884000703730006007800254390008683fb004d
:10289400354390000683fb004833dd0007037300d3
:1028a40086007800454390008683fb0055439000e2
:1028b4000683fb004833dd0007037300060178003c
:1028c400654390000683fb00f54290008582fb007f
:1028d400c82add0086827200850178000804200081
:1028e400090020006055b800000064008180640085
:1028f4000201650083816500f50f20000503600077
:1029040094427800e0c2620086c27200054a7800f0
:102914004803de0094429000e0c2620086c2720066
:1029240015429800f50f200005836000a442900032
:10293400e0c2620086c2720025429800480bde00a5
:10294400b4429000e0c2620086c272003542980030
:10295400f50f200005036100c4429000e0c262004c
:1029640086c27200454298004813de00d4429000ab
:10297400e0c2620086c2720055429800f50f200042
:1029840005836100e4429000e0c2620086c27200e6
:1029940065429800c818de007440900060406000f2
:1029a40001407000704298009e4078000180fb0056
:1029b40080004000a09721000080400010027800b1
:1029c4001e4178000280fb0080004000a097210097
:1029d4000080400090027800954178008383fb00da
:1029e400154390000683fb004833dd0007037300a2
:1029f40006007800254390008683fb003543900051
:102a04000683fb004833dd0007037300860078006b
:102a1400454390008683fb00554390000683fb00ea
:102a24004833dd0007037300060178006543900016
:102a34000683fb00f54290008582fb00c82add0076
:102a440086827200850178000804200009002000b5
:102a54006055b80000006c0081806c0002016d00bc
:102a640083816d00f50f2000050360009442780017
:102a7400e0c2620086c27200054a78004803de00a4
:102a840094429000e0c2620086c27200154298002f
:102a9400f50f200005836000a4429000e0c26200ac
:102aa40086c2720025429800480bde00b4429000b2
:102ab400e0c2620086c2720035429800f50f200021
:102ac40005036100c4429000e0c2620086c2720045
:102ad400454298004813de00d4429000e0c26200f0
:102ae40086c2720055429800f50f200005836100ec
:102af400e4429000e0c2620086c27200654298001f
:102b0400c818de007440900060406000014070000e
:102b140070429800a19721001e4178000280fb00ba
:102b24000000400080804000a29721009e41780070
:102b34000380fb00000040000000410010407800ca
:102b44000034a200804878009e4078000180fb0099
:102b540080004000a0972100008040001000780011
:102b64001e4178008280fb0001814000a197210072
:102b74008100410091007800914178000381fb00bd
:102b8400914090008180fb00c808dd0082807000c5
:102b9400010178000104200001016100f10f20000f
:102ba4008101610090407800e0c0600083c0700043
:102bb400014878004811de0090409000e0c06000b9
:102bc40082c07000114098009e4078000180fb0094
:102bd40080004000a0972100008040001000780091
:102be4001e4178008280fb0001814000a1972100f2
:102bf4008100410091007800914178000381fb003d
:102c0400914090008180fb00c808dd008280700044
:102c1400010178000104200001016900f10f200086
:102c24008101610090407800e0c0600083c07000c2
:102c3400014878004811de0090409000e0c0600038
:102c440082c07000114098004f05be004f04be00c2
:102c54000080fa00000006000000fa000000eb000b
:102c6400502688000000eb00102688000000eb00ce
:102c740050cb88000080fa00000006000000fa0033
:102c840050cb8000e00f500019003a000000eb0028
:102c9400502688000000eb00102688000000eb009e
:102ca400e0268800f009200030268800f009200082
:102cb400102688002ac8a80051438000f08f2f00f6
:102cc4008080600000402000008070005043880035
:102cd40001003700ca04a80050268000610060008b
:102ce400e00f5000fbff32001000200050cb8800a2
:102cf4000080fa00000006000000fa0020cd8000e9
:102d0400e00f500063003a001000200020cd88003e
:102d140030cd8000e00f50005e003a00100020002b
:102d240030cd88001098210010407800e24f500008
:102d340012003a00d0cb8000a0409000e0c06000b8
:102d44002140980030419000c1cfb3008140610020
:102d540031409800d0cb80009040780060c1600082
:102d640081ccb3008140710001487800904090000c
:102d7400e0c0600011409800460037001098210020
:102d840010407800e14f500042003a000000eb0090
:102d9400c0cc880080cb8000a0409000e0c06000e0
:102da4000134a0002140980030419000c1cfb3000d
:102db400814061003140980080cb8000c29a21009c
:102dc400f10f200081016100c0409000e0c060006c
:102dd40083c07000414098004811de00d04090004c
:102de400e0c0600082c070005140980080cb800039
:102df4009040780060c1600041c8b3008140710018
:102e04000148780090409000e0c0600011409800b4
:102e140010002000c0cc880090cb8000a04090001f
:102e2400e0c060000134a0002140980030419000cf
:102e3400c1cfb300814061003140980090cb800045
:102e4400c29a2100f10f200081016100c04090006e
:102e5400e0c0600083c07000414098004811de006b
:102e6400d0409000e0c0600082c0700051409800e3
:102e740090cb80009040780060c1600001c8b3002e
:102e8400814071000148780090409000e0c06000eb
:102e9400114098000080fa00000006000000fa00cb
:102ea4000000eb0040cd88000000eb0050cd88000e
:102eb4001098210010407800e24f500020003a00a2
:102ec40090cb8000a0409000e0c060000134a000de
:102ed4002140980030419000c1cfb300814061008f
:102ee4003140980090cb8000429b2100f10f2000dc
:102ef40081016100c0409000e0c0600083c07000a8
:102f0400414098004811de00d0409000e0c06000cd
:102f140082c070005140980090cb800090407800af
:102f240060c1600081ccb300814071000148780029
:102f340090409000e0c06000114098002c003700e1
:102f4400209b2100904078000180fb00319b2100f0
:102f5400114178008280fb00c808dd000080700009
:102f64008000780030cc8000808f50000900310050
:102f7400209b2100904078000180fb00319b2100c0
:102f8400114178008280fb00c808dd0000807000d9
:102f940030cc8800cb000700d0cb8000429b2100be
:102fa400f10f200081016100c0409000e0c060008a
:102fb40083c07000414098004811de00d04090006a
:102fc400e0c0600082c0700051409800d0cb800007
:102fd4009040780060c1600081ccb30081407100f2
:102fe4000148780090409000e0c0600011409800d3
:102ff4000080fa00000006000400fa002047980050
:103004003147980000a02100000f78002e40900066
:103014000080fb0000004000800078003e409000eb
:103024000080fb00008040004400dd001e0f4000d3
:103034009e007800114078000074a1008048780058
:103044003e409000e04f500007003a002e409000b0
:103054000080fb0080004000409721000080400079
:103064001e087800060037002e4090000080fb0008
:1030740080004000a0972100008040001e087800d6
:103084001e01780092407800f0cbb30000c06000cd
:10309400004978001e0078006801400092407800e2
:1030a40000c4b30000c07000004978000080fa003a
:1030b400000006000000fa00caa4a90021cc800088
:1030c4000008200000806000e00f50003b003a0040
:1030d400a09821009040780000c8b30000c06000b0
:1030e400e04f50000c0032001198210020c0b300c2
:1030f4008048780050cd8000e00f500001003a0075
:1031040066ff07000000eb0030cd88000000eb00f4
:1031140020cd88006900370090cb8000a04090004b
:10312400e0c060000134a0002140980030419000cc
:10313400c1cfb300814061003140980090cb800042
:10314400c29a2100f10f200081016100c04090006b
:10315400e0c0600083c07000414098004811de0068
:10316400d0409000e0c0600082c0700051409800e0
:1031740090cb80009040780060c16000c1c8b3006b
:10318400814071000148780090409000e0c06000e8
:1031940011409800d0cb80009040780060c160005e
:1031a40041c8b3008140710001487800904090000c
:1031b400e0c060001140980040003700c09a210030
:1031c4009040780000c8b30000c06000e04f500099
:1031d400100032001198210010c0b300804878001c
:1031e40040cd8000e00f500001003a002bff0700a3
:1031f4000000eb0030cd88000000eb0020cd8800fb
:1032040010cd8000e00f50002c003a00bafe0700f9
:103214002a0037001198210020c0b30080487800ac
:1032240090cb8000a0409000e0c060000134a0007a
:103234002140980030419000c1cfb300814061002b
:103244003140980090cb8000c29a2100f10f2000f9
:1032540081016100c0409000e0c0600083c0700044
:10326400414098004811de00d0409000e0c060006a
:1032740082c070005140980090cb8000904078004c
:1032840060c1600041c8b30081407100014878000a
:1032940090409000e0c06000114098000000eb00f6
:1032a40030cd88000000eb0020cd880010cd8000d8
:1032b400e00f500001003a008ffe07000080fa0082
:1032c400000006000200fa0080c0b300004f78003e
:1032d40030cc8000e70f500011003e0030cc80005d
:1032e400004f78000098210010407800e04f500013
:1032f40004003a000198210010c0b300804878000f
:10330400070037000098210010407800e14f50007a
:1033140003003a000198210020c0b30080487800df
:1033240031cc80001e4178000280fb0000805000f8
:1033340030cc8800d0cb80001e4178008280fb0016
:10334400f23f200082806000f20f20008281600042
:1033540020419000604161000341710022409800c7
:10336400c808de00e3806000e3c06000b041900064
:10337400c2cfb30002c161008140710031409800a6
:10338400409b210080cc880020cc8000610060003c
:10339400e00f500017003a000900370082cc80008b
:1033a40011cc800011407800004978000200e80048
:1033b40080cc88000100e80010cc88001e4fe90092
:1033c4001e407800e04f5000f4ff3a000c00370034
:1033d40082cc800011cc8000114078000049780034
:1033e4000200e80080cc88000100e80010cc8800ce
:1033f4001e4fe9001e407800e04f5000f4ff3a00f1
:103404000080fa00000006000200fa0081cb800070
:10341400214090000081fb00314090000080fb00bf
:10342400630060004800dd0002007000004f780077
:103434001e4078008080fb00b09821001041780085
:103444000280fb00c2982100924178000381fb00b6
:103454004811dd0000007100808f50000900360023
:10346400b0982100904078000180fb00c1982100b1
:10347400114178008280fb00c808dd0000807000e4
:10348400004f7800b0982100904178000380fb0041
:10349400c1982100114178008280fb00c808dd003a
:1034a40000807000800078009e4178000380fb005b
:1034b40080805000f00f200080816000b2982100cd
:1034c40012407800604060000340700000497800ba
:1034d4004809de00c1982100114078006040600076
:1034e40002407000804878000040eb0010479800cc
:1034f4002000370080982100904078000180fb0074
:1035040091982100114178008280fb00c808dd00f9
:1035140000807000800078001e4090000080fb0056
:10352400429b210000004100104078008048780050
:103534008100e800f00f2000808160008298210063
:103544001240780060406000034070000049780039
:103554004809de0091982100114078006040600025
:1035640002407000804878001e4090000040e8004f
:10357400104798001e4090009e4f5000ddff390018
:10358400b0982100904178000380fb00c19821008d
:10359400114178008280fb00c808dd0000807000c3
:1035a400e00f50002f00320090cb8000a04090002c
:1035b400e0c060000134a000214098003041900038
:1035c400c1cfb300814061003140980090cb8000ae
:1035d400429b2100f10f200081016100c040900056
:1035e400e0c0600083c07000414098004811de00d4
:1035f400d0409000e0c0600082c07000514098004c
:1036040080cb8000104078000044b200e04f5000ae
:103614000a003a0090cb80009040780060c16000be
:1036240081ccb30081407100014878009040900043
:10363400e0c06000114098004400370090cb800047
:103644009040780060c1600081c8b300814071007f
:103654000148780090409000e0c06000114098005c
:103664003a00370090cb8000a0409000e0c060009a
:103674000134a0002140980030419000c1cfb30034
:10368400814061003140980090cb8000c29a2100b3
:10369400f10f200081016100c0409000e0c0600093
:1036a40083c07000414098004811de00d040900073
:1036b400e0c0600082c070005140980090cb800050
:1036c4009040780060c1600041c8b300814071003f
:1036d4000148780090409000e0c0600011409800dc
:1036e400d0982100904178000380fb00e1982100ec
:1036f400114178008280fb00c808dd000080700062
:10370400e00f500009003200d09821009041780069
:103714000380fb00e1982100114178008280fb00c6
:10372400c808dd000080700000000100a19821009d
:10373400114078000074a1008048780010cd80000a
:10374400e00f500001003a006bfd07000080fa0012
:10375400000006000200fa0021cc800000082000ce
:103764000080700020cc8800420020008000eb0024
:10377400204e2000fbf30700020620008000eb002f
:1037840000a02100f7f30700ca24a8000040eb00c2
:10379400004f78000d0037009e4078000180fb0048
:1037a400a1992100808040000040eb00804878000f
:1037b4009e4078000180fb00d19921008080400068
:1037c4000040eb00804878001e4fe8001e4078005f
:1037d400e24f5000f0ff3600220020008000eb0092
:1037e400d0962100dff30700ca24a90000a121001c
:1037f400d0cb880000a0210080cb880080cb800043
:1038040090cb8800e09a210010407800c1962100f6
:1038140080487800c096210010407800e04f5000a6
:1038240003003a000001200050cb88000600370056
:1038340012002000c1962100100020005407070048
:103844000002200050cb88000080fa00000006002f
:103854000000fa00c09a21009040780000c8b3002c
:1038640080cf50003f003a004198210000ccb300c3
:1038740080487800f09a2100104078000080fb0016
:10388400e20f500009003200e30f50001b00320029
:10389400e10f50002f003a0000e0280010cc88000f
:1038a4002001200030cc88002e003700e09a21004f
:1038b400104078000080fb00000040008000780089
:1038c40020ec2800008040001000780010cc880014
:1038d40010cc80000080e80010407800619821003e
:1038e4008048780010cc80006300400010407800cd
:1038f40071982100804878001a003700e09a21006e
:1039040010407800e24f50000e003e00e09a210083
:10391400104078000080fb00000040008000780028
:1039240040ec2800008040001000780010cc880093
:1039340010cc8000104078000080fb0030cc880060
:1039440008003700419821000040eb0080487800cf
:1039540004003700419821000040eb0080487800c3
:10396400000000000080fa00000006000200fa00d7
:10397400419b21000040eb0080487800519b2100ce
:103984000040eb0080487800c09a21009040780005
:103994007fc060000080fb00e10f50001600320081
:1039a400e20f500019003200e00f500046003a00c8
:1039b40021cc8000000820000080700020cc88000a
:1039c400409b2100104078000004a000419b21008e
:1039d4008048780090cc8000e10f500035003a0018
:1039e400409b2100104078000014a000419b21005e
:1039f400804878003400370021cc80000008200083
:103a04000080700020cc88002f00370021cc80007b
:103a1400000820000080700020cc8800009b21005a
:103a24009040780000c8b30000c06000e04f500030
:103a340009003a00009b2100904078006fc06000ac
:103a44000080fb008000400040972100008040007f
:103a5400100f780008003700009b21009040780088
:103a64006fc060000080fb0080004000a097210030
:103a740000804000100f78001e007800904078000d
:103a840000c8b30000c06000e04f50000b003200db
:103a94001e0078001040780064406000e04f500041
:103aa40008003200419b210010c0b3008048780018
:103ab400050037000000000003003700000000008c
:103ac400010037000000000021cc80000008200025
:103ad40000806000e00f500008003200409b21008d
:103ae40010cc880020cc80000000a00020cc8800ee
:103af4006198210020c0b300804878000080fa005b
:103b0400000006000000fa00002780006200600048
:103b1400e00f50002000320080cb8000104178007c
:103b24008280fb00104090000080fb004800dd0014
:103b3400010070008000780000082000808f500091
:103b440014003a00d0cb8000104178008280fb0042
:103b5400104090000080fb004800dd000100700070
:103b64008000780040082000808f500009003a004f
:103b740080cb80009040780060c16000c1c8b30071
:103b8400814071000148780090409000e0c06000de
:103b940011409800e024a9000008200000268800b5
:103ba4000080fa00000006000000fa008a84a800e1
:103bb400000120000026880010002000a0cc88000e
:103bc4000001eb008000eb005007200070060700a6
:103bd4000080fa00000006000000fa000000eb007c
:103be400a0cc88000001eb008000eb00400720001f
:103bf400670607008a84a900000120004024880089
:103c04000080fa00000006000200fa00019a210078
:103c1400d0c2b30080487800609921001040780039
:103c24008080fb00b0ff2f0000806000e00f500098
:103c340050003a0060992100104078000080fb0099
:103c44004200de00004078000080fb00c300dd007d
:103c540000a021000080400080cb880080cb800041
:103c640090cb8800219721002097210010407800f4
:103c74000034a2008048780080cb80001040780097
:103c8400c2c3b3008240600040c3b30080cf500081
:103c940036003a000040eb00004f78002100370066
:103ca4001e4078008080fb00c09a21000081400003
:103cb40081cb8000414090008081fb005140900006
:103cc4000080fb004800dd00030070001040780015
:103cd4000049780080cb8000c04090000181fb0047
:103ce400d04090008180fb00c808dd008280700015
:103cf4000101e800f10f200081016100c040900043
:103d0400e0c0600083c07000414098004811de00ac
:103d1400d0409000e0c0600082c070005140980024
:103d24001e4fe8001e407800e74f5000dcff3600cd
:103d340080cb8000c29a2100f10f20008101610034
:103d4400c0409000e0c0600083c070004140980013
:103d54004811de00d0409000e0c0600082c07000d6
:103d6400514098000d0007000a0037007e0007004c
:103d74000800370060992100104078008080fb0023
:103d8400b0ff2f0000806000e80f500001003a00ef
:103d9400a60007000080fa00000006000000fa00f8
:103da400019821000040eb00804878000000eb00ff
:103db40010cd88000000eb0040cd88000000eb002f
:103dc40050cd88000000eb00c0cc88001198210081
:103dd4000040eb0080487800d0cb8000d1cb80003d
:103de400914178000381fb00914090008180fb00a9
:103df400c808dd008280700001017800f1f72f000f
:103e040001016100f10f2000810161009040780000
:103e1400e0c0600083c07000014878004811de00f3
:103e240090409000e0c0600082c070001140980093
:103e3400a1972100a0972100104078000034a2002f
:103e440080487800d0cb8000d1cb800091417800ad
:103e54000381fb00914090008180fb00c808dd00d5
:103e64008280700001017800f1f72f0001016100e8
:103e7400f10f20008101610090407800e0c06000f3
:103e840083c07000014878004811de009040900023
:103e9400e0c0600082c0700011409800a19721002a
:103ea400a0972100104078000034a20080487800d8
:103eb40090cb800091cb8000914178000381fb007e
:103ec400914090008180fb00c808dd008280700072
:103ed40001017800f1f72f0001016100f10f2000ca
:103ee4008101610090407800e0c0600083c07000f0
:103ef400014878004811de0090409000e0c0600066
:103f040082c0700011409800419821000040eb00ed
:103f1400804878000000eb0030cc8800a198210094
:103f24000040eb0080487800b198210011407800ef
:103f34006040600080487800c198210011407800fa
:103f44006040600080487800ac0007000001eb008e
:103f54008000eb00300020008d05070055fc0700b1
:103f64000080fa00000006000000fa00109821000a
:103f740010407800e24f500002003a0022fd070092
:103f840028003700119821000040eb008048780099
:103f9400c0cc8000e00f500020003a0090cb80009d
:103fa400a0409000e0c060000134a00021409800cf
:103fb40030419000c1cfb30081406100314098008e
:103fc40090cb8000c29a2100f10f20008101610092
:103fd400c0409000e0c0600083c070004140980081
:103fe4004811de00d0409000e0c0600082c0700044
:103ff4005140980090cb80009040780060c16000f0
:10400400c1c8b3008140710001487800904090001d
:10401400e0c0600011409800020037000000eb008f
:10402400c0cc88000080fa00000006000200fa00fc
:10403400d0cb8000904078000180fb004600de0079
:1040440061406000004f7800a1972100a0972100f3
:10405400104078000034a2008048780050cb8000e3
:10406400e80f50000c003a00e09a2100104078005c
:104074000080fb006026880060268000e00f50006e
:10408400030032000001200050cb880002003700fa
:104094004000200050cb8800109821001040780088
:1040a400e14f500033003a00d0cb8000429b210006
:1040b400f10f200081016100c0409000e0c0600069
:1040c40083c07000414098004811de00d040900049
:1040d400e0c0600082c070005140980079fc070085
:1040e4000098210010407800e24f50000a003a0086
:1040f400d0cb80009040780060c1600041c8b3001c
:10410400814071000148780090409000e0c0600058
:1041140011409800370037001e407800e04f5000ef
:104124000a003a00d0cb80009040780060c1600063
:1041340081ccb30081407100014878009040900028
:10414400e0c06000114098002a003700d0cb800006
:104154009040780060c1600081c8b3008140710064
:104164000148780090409000e0c060001140980041
:1041740020003700a09821009040780000c8b300c8
:1041840000c06000e04f500017003200d0982100ba
:10419400104178000280fb00e19821001141780071
:1041a4008280fb00c808dd0000807000e00f500032
:1041b40009003200d0982100904078000180fb0073
:1041c400e1982100114178008280fb00c808dd00dd
:1041d4000080700000000100a198210011407800c7
:1041e4000074a10080487800119821000040eb0081
:1041f400804878000080fa00000006000000fa0001
:10420400c09a2100104078000046b200e04f5000f0
:1042140055003a00d09a2100104078000080fb003d
:10422400cf80de00b200200003002000820f500087
:10423400838f58004e003e00000601002300370023
:10424400240037004c003700220037004a003700b2
:10425400060037000c0037003e0037000e00370020
:104264000b0037001d0037002d00370021cc8000e3
:10427400000820000080700020cc8800800020000e
:1042840050cb88003d00370071fd07003b0037002c
:1042940030fd070039003700c096210010cc88009b
:1042a40020cc80000000a00020cc88006198210070
:1042b40010c0b3008048780021cc800000082000a2
:1042c4000080700020cc88002c003700a7fd070078
:1042d4002a0037002b00070028003700009b21002c
:1042e400104078008080fb00d096210000804000c0
:1042f40010cc880020cc80000000a00020cc8800d6
:104304006198210010c0b3008048780021cc80005f
:10431400000820000080700020cc880017003700bf
:1043240021cc8000000820000080700020cc880090
:10433400009b2100104078008080fb00e09a21005f
:1043440010407800d2962100810041008048780016
:104354000a0037000001eb008000eb002000200081
:104364008b0407000500370000000000030037003d
:104374000000000001003700000000000080fa0087
:10438400000006000600fa00e09a210010407800c0
:10439400e14f500012003a00c09a2100104078000a
:1043a4007f406000e04f50000d003a0021cc8000b7
:1043b400000820000080700020cc8800d09a2100e2
:1043c40010407800e34f500003003a001000200032
:1043d40090cc8800020037000000eb0090cc8800ed
:1043e400e09a210010407800e04f500060013a004c
:1043f400c09a2100104078007f406000e24f5000d6
:104404005b013a00009b2100104078006f4060007f
:10441400e04f500056013200009b2100904078008c
:104424006fc060000080fb00e20f500050013c00b0
:1044340051cb800000022000808f50004c013a00d4
:1044440021cc8000000820000080700020cc88006f
:10445400009b21009040780000c8b30000c06000b9
:10446400e04f500012003a00009b210010417800f8
:104474006f4061000080fb008000400040972100f5
:10448400008040001000780010079800009b210075
:10449400904178006fc061000080fb00d199210039
:1044a4000080400010407800404798001100370019
:1044b400009b2100904078006fc060000080fb00ea
:1044c40080004000a0972100008040001000780088
:1044d40010079800009b2100104178006f40610094
:1044e4000080fb00a199210000804000104078006a
:1044f400404798004e40900061406000e04f5000fb
:1045040007003a000e81e8000e80e8009040780031
:1045140070cfb30000c06000004978000500370088
:104524008e80e8000e80e800104078000034a0007f
:1045340080487800009b21009040780000c8b300b8
:1045440000c06000e04f50000a003a00009b2100c8
:10455400904178006fc061000080fb009e009000d5
:10456400000140004097210000004100010878004c
:1045740009003700009b2100904078006fc0600064
:104584000080fb009e00900000014000a0972100e5
:104594000000410001087800d09a21001040780002
:1045a400e34f500036003a001e009000904078001f
:1045b40000c8b30000c06000e04f50001900320092
:1045c400009b21009040780000c8b30000c0600048
:1045d400e04f50000a003a00009b2100104178008f
:1045e4006f4061008080fb00d099210080804000f2
:1045f400114078000014a0008048780009003700ba
:10460400009b2100904178006fc061008080fb0016
:10461400a099210080804000114078000014a0007f
:10462400804878001e0090009e0090009141780020
:104634000381fb00914090008180fb00c808dd00ed
:10464400828070000101780041082000010171009e
:10465400f10f20008101610090407800e0c060000b
:1046640083c07000014878004811de00904090003b
:10467400e0c0600082c0700011409800bc003700a8
:104684008e80e8000e80e800104078000034a2001c
:10469400804878001e0090009040780000c8b30065
:1046a40000c06000e04f5000320032001e00900055
:1046b4009e009000914178000381fb00914090009e
:1046c4008180fb00c808dd00828070000101780051
:1046d400f1f72f0001016100f10f20008101610059
:1046e40090407800e0c0600083c07000014878000a
:1046f4004811de0090409000e0c0600082c070006d
:10470400114098001e0090009e0090009141780096
:104714000381fb00914090008180fb00c808dd000c
:104724008280700001017800010420000101710001
:10473400f10f20008101610090407800e0c060002a
:1047440083c07000014878004811de00904090005a
:10475400e0c0600082c07000114098001e0090000c
:104764002200200080007800500020008803070009
:10477400160037001e0090009e00900091417800c2
:104784000381fb00914090008180fb00c808dd009c
:104794008280700001017800010420000101710091
:1047a400f10f20008101610090407800e0c06000ba
:1047b40083c07000014878004811de0090409000ea
:1047c400e0c0600082c07000114098008e80e80054
:1047d4000e80e800104078000034a2008048780081
:1047e4004e40900062406000e04f500006003a00e6
:1047f4001e0090009040780000c8b30000c0600024
:10480400e04f500037003200009b210090407800b8
:1048140000c8b30000c06000e04f50000b003a0035
:10482400009b2100904078006fc060008080fb00f6
:10483400d09921000081400092407800d0cfb3008d
:1048440000c06000004978000a003700009b210086
:10485400104178006f4061008080fb00a099210026
:104864000081400092407800d0cfb30000c06000c7
:10487400004978001e0090009e009000914178004d
:104884000381fb00914090008180fb00c808dd009b
:104894008280700001017800b1f32f0001016100f2
:1048a400f10f20008101610090407800e0c06000b9
:1048b40083c07000014878004811de0090409000e9
:1048c400e0c0600082c07000114098001e0090009b
:1048d4002200200080007800500020002c030700f4
:1048e400160037001e0090009e0090009141780051
:1048f4000381fb00914090008180fb00c808dd002b
:104904008280700001017800b1f32f000101610081
:10491400f10f20008101610090407800e0c0600048
:1049240083c07000014878004811de009040900078
:10493400e0c0600082c0700011409800014e200069
:10494400009b2100104178006f4061000080fb0053
:1049540000004000008f40001e0078009040780066
:10496400d0cfb30000c060009e007800804878007b
:104974000080fa00000006000000fa00c09a21003e
:10498400104078007f406000e14f500092003a00f0
:10499400c09a21001040780002c6b3008240600033
:1049a40000c2b30080cf50008d003a00009b21006c
:1049b40010407800e04f500004003200009b2100ba
:1049c40010407800e14f500087003a00d09a21004f
:1049d400104078000080fb00cf80de00220220001f
:1049e40003002000820f5000838f580080003e0097
:1049f40000060100220037002d0037007e0037003a
:104a04007d0037007c0037007b0037007a003700d8
:104a140079003700780037007700370076003700d8
:104a240075003700740037007300370072003700d8
:104a340071003700700037006f0037006e003700d8
:104a44006d0037006c0037006b0037006a003700d8
:104a540069003700680037006700370066003700d8
:104a640065003700640037006300370062003700d8
:104a74006100370015003700460037004d0037004d
:104a840040b0210010cc88008000200030cc880089
:104a940020cc80000000a00020cc880021cc800025
:104aa400000820000080700020cc880053003700ec
:104ab40040b0210010cc880021cc800000082000e8
:104ac4000080700020cc88004c003700209b21001f
:104ad400904078000180fb00319b21001141780057
:104ae4008280fb00c808dd00008070008000780030
:104af400f00f200080816000b298210012407800fd
:104b04006040600003407000004978004809de00fe
:104b1400c19821001140780060406000024070009c
:104b24008048780001ae2100f00f200080816000f1
:104b340082982100124078006040600003407000b9
:104b4400004978004809de0091982100114078005e
:104b5400604060000240700080487800d1982100d5
:104b6400114078006040600080487800e19821009e
:104b7400114078006040600080487800a2982100cd
:104b84009240780000c8b30000c07000004978006b
:104b94001a00370000ae210010cc880070002000fd
:104ba40030cc88004198210010ccb30080487800b4
:104bb40012003700e09a210010407800e1af210094
:104bc4008048780021cc800000082000008070001c
:104bd40020cc8800090037000000000007003700df
:104be400000000000500370000000000030037004b
:104bf4000000000001003700000000000080fa00ff
:104c0400000006000000fa0000b0240001002000ab
:104c140000d7880011d7880041ae21000040eb0086
:104c24008048780051ae21000040eb0080487800b5
:104c340061ae210080c0b3008048780021af21001c
:104c44000040eb008048780051c1b30010c0b300ad
:104c5400daf50700d1c1b30020c0b300d7f50700cf
:104c640003c4b30002aa21008040eb0020c0b300bb
:104c7400eff50700d0d788000000eb00e0d78800ec
:104c840031af21000040eb00804878000080fa003a
:104c9400000006000600fa00000f780011079800d3
:104ca400220798001e007800e50f500016003a0015
:104cb400d0d780009e009000808f500006003a00fc
:104cc40003c4b30002aa21008040eb0020c0b3005b
:104cd400d7f50700d0d78800e0d780009e00900069
:104ce400808f500006003a0031af21000040eb00f5
:104cf4008048780081af21000040eb0080487800b4
:104d040010002000010037000000eb000080fa00d2
:104d1400000006000400fa00000f78002147980004
:104d240021af21000040eb0080487800d0d78000fc
:104d3400e00f500006003200d0d780009040780089
:104d440000c8b30000c06000e04f500036003a00d5
:104d54002e4090000081fb00d0d7800080007800b6
:104d6400214090008081fb00314090000080fb00d6
:104d7400630060004800dd0003007000800f5100f4
:104d84000a003400d0d780008000780021409000d1
:104d94000081fb00314090000080fb006300600054
:104da4004800dd00020070002047980021af210078
:104db4000040eb00804878001000370020af21004d
:104dc400104078000080fb009e00400020af2100ce
:104dd400104078000080fb0002aa2100000041007e
:104de400104078008048780020af210010407800ff
:104df4000040e80021af21008048780020af210066
:104e0400904078002e40900080cf5000ebff390096
:104e140003c4b30002aa21008040eb0020c0b30009
:104e240083f50700d0d7880020af21001040780018
:104e34000080fa00000006000400fa00000f780069
:104e4400214798002ac8a90030af210010407800fb
:104e5400e04f50000b003a001e007800a0d78800f5
:104e640080af2100ae4090000148780091af21004e
:104e740010c0b3008048780031af210010c0b300e7
:104e8400804878002ac8a8000080fa0000000600c4
:104e94000600fa00200798002ac8a90030af2100b4
:104ea40010407800e04f5000020032002ac8a800e9
:104eb400200037000040eb00004f78002e009000e7
:104ec400100798001e4fe8001e407800e14f400094
:104ed4000c0032001e009000104078000080fb009f
:104ee4000000ea004f00de00004078009e009000c1
:104ef4008100e80011079800e04f5000f1ff3a00ec
:104f040001003700000000002e009000a0d78800a8
:104f140080af21001e48780091af210010c0b3007b
:104f24008048780031af210010c0b3008048780079
:104f34002ac8a8000080fa00000006000600fa0053
:104f4400200798002ac8a90030af2100104078003b
:104f5400e04f5000020032002ac8a80020003700a9
:104f64000040eb00004f78002e00900010079800de
:104f74001e4fe8001e407800e14f40000c00320054
:104f84001e009000104078000080fb000000ea0042
:104f94004f00de00004078009e0090008100e80091
:104fa40011079800e04f5000f1ff3a00010037006c
:104fb400000000002e009000a0d7880080af2100e0
:104fc4001e48780091af21000040eb008048780033
:104fd40031af210010c0b300804878002ac8a8006f
:104fe4000080fa00000006000200fa002ac8a900a6
:104ff400e0d78000e00f500008003200e0d78000c6
:105004009040780000c8b30000c06000e04f50003a
:10501400020032002ac8a8006e00370030af210019
:1050240010407800e34f500003003a0031af2100f4
:105034000040eb008048780030af21001040780039
:10504400e04f500002003a002ac8a800610037006f
:1050540030af210010407800e24f50000a003a00bf
:105064008041eb000001eb0011c0b30020c0b3008d
:10507400eff40700e0d7880031af210030c0b3005f
:10508400804878005200370030af2100104078008b
:10509400e14f50004e003a0080af2100904078006c
:1050a40000c4b30080cf50000300360000c4b30036
:1050b400004f78000200370080af2100104f7800c5
:1050c40080af2100104078001e40500081af2100c5
:1050d4008048780000a62100b0d788001e407800e0
:1050e4001047980090af210010407800e04f500026
:1050f4001f003a000d003700b1d78000a0d7800010
:105104001040780080487800b0d780000000e800a4
:10511400b0d78800a0d780000000e800a0d788009e
:105124001e4090000040e900104798001e40900087
:10513400e04f5000f0ff3a0010003700b1d7800074
:10514400a0d780001040780080487800b0d7800055
:105154000000e800b0d78800a0d780000000e80075
:10516400a0d788001e4090000040e9001047980036
:105174001e409000e04f5000f0ff3a0080af210045
:1051840010407800e04f50000b003a0000c4b30018
:105194009e40780080cf500004003a0031af2100d7
:1051a40020c0b300804878000300370031af2100ed
:1051b40030c0b300804878009e41780002a62100e8
:1051c40011c0b30020c0b30099f40700e0d78800f1
:1051d4002ac8a8000080fa00000006000200fa00b5
:1051e40050cb8000ff0f5000160036008024800052
:1051f40062006000e00f500014003a0040f1280003
:105204004eff070030af210010407800e04f5000ff
:105214000a003a0001c4b30000922100bdfe070059
:10522400004f78001e407800e04f50000300320029
:105234009e407800008e2100fffe07006aff0700f1
:1052440003003700000000000100370000000000e8
:105254000080fa00000006000000fa0040cb800045
:10526400e00f500002003a000071220040cb880099
:1052740040cb80000000e90040cb880080248000ff
:1052840062006000e00f50001800320040cb800044
:10529400e00f50005d003a00a0718000e100600062
:1052a40010c0b300e08f5000010032000040eb005a
:1052b4000080fb0061006000a2718000e1ff2f000c
:1052c4008100610000807000a0718800a0718000de
:1052d40061006000e00f500002003200342ea8008c
:1052e4004a003700342ea9004800370050cb800014
:1052f400e00f500003003a00340ea900342ea90038
:105304004200370050cb8000e10f500003003a0008
:10531400340ea800342ea8003c00370050cb800087
:10532400e20f500003003a00340ea800342ea90006
:105334003600370050cb8000e40f500003003a00e1
:10534400340ea900342ea8003000370050cb800062
:10535400f00f500012003a0040cb8000e00f5000e4
:105364002a003a00a0718000e100600010c0b30080
:10537400e08f5000010032000040eb000080fb0091
:1053840061006000a2718000e1ff2f0081006100d4
:1053940000807000a0718800342ea9001b00370023
:1053a40051cb800000022000808f500017003a008b
:1053b40040cb8000e00f500014003a00a071800040
:1053c400e100600010c0b300e08f50000100320023
:1053d4000040eb000080fb0061006000a2718000cf
:1053e400e1ff2f008100610000807000a07188003f
:1053f400a071800061006000e00f500002003200e4
:10540400342ea90001003700342ea8000080fa00d1
:10541400000006000000fa001b0307000080fa00e9
:10542400000006000000fa000080fa0000000600f8
:105434000000fa00907180004600de0061406000c8
:105444008080fb0010cb8000808f500016003a0053
:105454004096210010407800e04f500006003200d2
:1054640040962100104078000040e9004196210058
:1054740080487800150037009171800000042000f6
:105484008080600010002000e08f50000100320096
:105494000000eb0010cb88004196210040c6b30009
:1054a40080487800090037004096210010407800b9
:1054b400e04f500005003200409621001040780073
:1054c4000040e90041962100804878000080fa00fd
:1054d400000006000000fa000080fa000000060048
:1054e4000000fa0024fd07000080fa000000060016
:1054f4000000fa000080fa00000006000000fa0034
:10550400c0fd07000080fa00000006000000fa0059
:1055140090cc8000e10f50001b003a00a0cc80002a
:10552400e10f500018003a002ac8a900bdff070087
:105534009024a9000000eb00a0cc880000e120002a
:1055440030cb880030cb80000000e90030cb8800ed
:1055540030cb8000e00f5000faff3a00ca44a800a4
:105564008070200030cb880030cb80000000e90040
:1055740030cb880030cb8000e00f5000faff3a00b7
:10558400ca44a9002ac8a8000080fa000000060046
:105594000600fa00000f780011079800220798000f
:1055a4001e00780021072000810f500028003200df
:1055b40021072000810f50000a003c00e20f500038
:1055c4001d003200e20f500003003c00e10f5000c8
:1055d400170032001f003700e30f5000180032009c
:1055e4001c00370041072000810f50000e003200dc
:1055f40041072000810f50000700350051072000ab
:10560400810f500006003200f1ff2700810f500087
:105614000d0032000f00370085ff07000d00370032
:105624007cff07000b0037007eff070009003700ee
:10563400b2ff070007003700adff07000500370081
:10564400a7ff070003003700a2ff0700010037008f
:1056540000000000100020000080fa000000060096
:105664000600fa000e81e8000089be000000eb008d
:10567400000f7800f1cf8000f0102000808f5000e0
:105684004d0034000000eb00000f780046003700a6
:10569400f4cf80001e007800cf80de0000004000c0
:1056a40081804800808fd2008180d2000000780081
:1056b40000f0a1000e81e8001201be008202d000b9
:1056c4000003d000068042004220a80081804900e7
:1056d4004200a9004220ae004200a8000080d3008e
:1056e400920180008101780093018800000000008d
:1056f400000078009000780092018800000000000b
:105704000401420000042100000041000108780067
:10571400f0cf800004ef2f00000242001e0078004a
:10572400cf80de000000400081804800808fd200de
:105734008180d2000000780000f0a1000e81e80012
:105744001201be008202d0000003d0000680420095
:105754004220a800818049004200a9004220ae00f6
:105764004200a8000080d3009201800081017800eb
:105774009301880000000000000078009000780089
:10578400920188000000000004014200000421008e
:105794000000410001087800f0cf80000000e8001c
:1057a400f0cf88001e0fe8001e007800ef0f5000b5
:1057b400b7ff3400290037000000eb00000f780029
:1057c40023003700f4cf80001e007800cf80de0075
:1057d4000000400081804800808fd2008180d20088
:1057e4000000780000f0a1000e81e8001201be0064
:1057f4008202d0000003d000068042004220a800ac
:10580400818049004200a9004220ae004200a80065
:105814000080d30092018000810178009301880008
:1058240000000000000078009000780092018800d9
:1058340000000000040142000004210000004100b7
:10584400010878000400e800f0cf88001e0fe8008b
:105854001e007800ef0f5000daff3400f1cf800013
:10586400f01f2000808f5000020034000000eb0085
:10587400f0cf8800f1cf8000f00f2000808f50001f
:105884000200340010002000e0cf8800e0cf800048
:10589400e00f50000200320010002000d0cf88003a
:1058a4000080fa00000006000000fa000000eb008f
:1058b400707088000000eb00f07088000000eb00be
:1058c400707188000000eb00f07188000000eb00ac
:1058d400707288000000eb00707388000000eb0019
:1058e400303688004006200030368800913480002d
:1058f400f00f2c00808060000030200000807000d9
:105904009034880060022000303a8800213a8000f8
:10591400f0f32f0000806000203a8800213a8000d4
:1059240000fe2f0000806000203a88000000eb0099
:10593400403a88003200200080072000a10920009e
:1059440033742000804978008149780082497800c6
:105954001200200060042000710520002374200040
:10596400804978008149780082497800000000006d
:10597400113a8000000027008080600000002300ae
:10598400808f5000faff3a00104c2200c03a880081
:1059940070002000d03a880059e7a80000000000f9
:1059a400c13a80000000240000806000e00f500035
:1059b400fbff320026f107000080fa000000060019
:1059c4000000fa00b8ff07001000070050cb800069
:1059d400e00f500001003a00a8f40700d0cf800087
:1059e400e00f500002003a0000000000fbff370007
:1059f4000000eb00d0cf880033ef07000044210003
:105a04004efd0700f5fd0700f4ff37000000fa0023
:105a140060022000303a8800213a8000f0f32f0021
:105a240000806000203a8800213a800000fe2f00a8
:105a340000806000203a88000000eb00403a8800b3
:105a440040a7a9003200200080072000a1092000ff
:105a540033742000804978008149780082497800b5
:105a6400103a80001200200060042000710520001c
:105a740023742000804978008149780082497800a5
:105a840000000000113a80000000270080806000c0
:105a940000002300808f5000faff3a00000000004d
:105aa400113a80000002200000806000e00f5000e6
:105ab400fbff32002e000700020007000080fa00fe
:105ac400000006000000fa000119800000302000e8
:105ad400008070000019880001198000000e200069
:105ae40000807000001988002043a9002143a90008
:105af40011198000f0cf2f00008060001019880079
:105b040011198000f0ff2100008060001019880046
:105b140025e3a90021198000f00f2e000080600009
:105b24002019880020c0b30024e3b7003303a80081
:105b34002183a8001119800030f82f000080600034
:105b4400101988004119800000fe2f0000806000b9
:105b54004019880028e3a90001a8a90021a8a900e8
:105b640021e3a8002043a8000080fa0000000600fa
:105b74000000fa0001588000f0fc2f000080600053
:105b84000058880001588000c0ff2f00008060008a
:105b94000010a000005888000030200060588800e1
:105ba400f000200070588800d000200010588800b1
:105bb400000021002058880000002100305888008f
:105bc400000221004058880000022100505888003b
:105bd4000088a9002088a80001eba8000080fa0032
:105be400000006003600f800809fbe00829fbe00c1
:105bf400849fbe00869fbe003200f8000020200073
:105c040090018800000000000000fa00d4d8800051
:105c1400e00f520005003a000200210003002000ba
:105c24000200be008efe07000300370000022100c0
:105c3400010020008afe0700d0d880000000a200e6
:105c4400d0d8880040e020001060a2000088a9009d
:105c54000080fa003200f9004f03be004f02be007c
:105c64004f01be004f00be003600f90000400600a0
