:020000040000fa
:080000000002040000000000f2
:020000040000fa
:10000800c8020000c8020000c8020000c8020000c0
:10001800c8020000c8020000c8020000c8020000b0
:10002800c8020000c8020000c8020000c8020000a0
:10003800c8020000c8020000c8020000c802000090
:10004800c8020000c8020000c8020000c802000080
:10005800c8020000c8020000c8020000c802000070
:10006800c8020000c8020000c8020000c802000060
:10007800c8020000c8020000c8020000c802000050
:10008800c8020000c8020000c8020000c802000040
:10009800c8020000c8020000c8020000c802000030
:1000a800c8020000c8020000c8020000c802000020
:1000b800c8020000c8020000c8020000c802000010
:1000c800c8020000c8020000c8020000c802000000
:1000d800c8020000c8020000c8020000c8020000f0
:1000e800c8020000c8020000c8020000c8020000e0
:1000f800c8020000c8020000c8020000c8020000d0
:10010800c8020000c8020000c8020000c8020000bf
:10011800c8020000c8020000c8020000c8020000af
:10012800c8020000c8020000c8020000c80200009f
:10013800c8020000c8020000c8020000c80200008f
:10014800c8020000c8020000c8020000c80200007f
:10015800c8020000c8020000c8020000c80200006f
:10016800c8020000c8020000c8020000c80200005f
:10017800c8020000c8020000b4040000c802000061
:10018800c8020000c8020000c8020000c80200003f
:10019800c8020000c8020000c8020000c80200002f
:1001a800c8020000c8020000c8020000c80200001f
:1001b800c8020000c8020000c8020000c80200000f
:1001c800c8020000c8020000c8020000c8020000ff
:1001d800c8020000c8020000c8020000c8020000ef
:1001e800c8020000c8020000c8020000c8020000df
:1001f800c8020000c8020000c8020000c8020000cf
:10020800c8020000c8020000c8020000c8020000be
:10021800c8020000c8020000c8020000c8020000ae
:10022800c8020000c8020000c8020000c80200009e
:10023800c8020000c8020000c8020000c80200008e
:10024800c8020000c8020000c8020000c80200007e
:10025800c8020000c8020000c8020000c80200006e
:020000040000fa
:100400000f2621000eff2d000e01880000000000c5
:100410000c000700c0f62100010020000f000700bb
:10042000000020000000e000020032000000020096
:1004300000000000b21b0200000000000040da00d3
:100440000000fe00000e20000000e000020032006c
:10045000002020009001880000000600a102880012
:10046000800078000000eb001a003700e2804000b6
:1004700054a0b4009101ba00e280400054a0b4003e
:100480009102ba00e280400054a0b4000002eb00e8
:10049000472bde00f507b200a6018800602ce100c2
:1004a00008003a000049eb000201e80002003900b0
:1004b0003420ec0002f0a0008301e900f9ff3e00c7
:1004c000040037006128e100010032000082eb00e7
:1004d000040007001101ba000200e000e3ff3a0047
:1004e0000000060004d0a300e20f49001c00390000
:1004f000810278003549ba000201e80002003900a3
:100500003420ec0002f0a0008301e9000f0032006b
:100510002549ba000201e800020039003420ec004d
:1005200002f0a0008301e900080032000400e000ae
:100530000600320015c9ba000201e80002003900c5
:100540003420ec0002f0a0008301e9008180e80083
:1005500054a0b4000300e000e2ff3a0000000600ef
:100560009102ba00055978008301e900f7ff3200d3
:10057000c82ade00055978008301e900f3ff320044
:100580000400e000f1ff320011d9ba00eeff37009d
:100590000040da000000fe000000fa008001780050
:1005a0000200370081597800040178000202e90056
:1005b000e00f5100fbff3a000080fa000000060047
:020000040000fa
:1005c000120100000002000002000000000800000c
:1005d000d80400000a000000000100000102000031
:1005e00000010000090200004300000002010000b9
:1005f00000c00000320900000400000000010000fb
:1006000002020000010000000524000000100000ac
:10061000010400002402000002050000240600007e
:100620000001000005240000010000000107000097
:10063000058100000308000000020000090400001a
:1006400001000000020a0000000000000007000096
:100650000502000002400000000000000705000045
:1006600082020000400000000000000004030000bf
:1006700009040000340300004d0000006900000080
:1006800063000000720000006f00000063000000c3
:1006900068000000690000007000000020000000f9
:1006a00054000000650000006300000068000000c6
:1006b0006e0000006f0000006c0000006f00000082
:1006c00067000000790000002000000049000000e1
:1006d0006e000000630000002e00000034030000e4
:1006e0004300000044000000430000002000000020
:1006f00052000000530000002d00000032000000f6
:10070000330000003200000020000000450000001f
:100710006d000000750000006c000000610000002a
:1007200074000000690000006f0000006e0000000f
:100730002000000044000000650000006d00000083
:100740006f000000f2820000368300003a83000050
:100750006e83000042750000747400006f6e00002c
:100760002050000072650000737300006564000093
:10077000202d00002d2000000d0a000000000000c8
:020000040000fa
:100780000200fa002ac8a900f00f200020268800e5
:10079000f00f2000002688000000eb0000278800f2
:1007a000420020008000eb00204e20007aff07006e
:1007b0000000eb00e0268800f009200030268800c9
:1007c000f0092000102688009004a80000202100d5
:1007d0004800de00702688000040eb00004f7800e3
:1007e0000a0037009e4078000180fb00c300dd0056
:1007f00000202100008240006000b8006011b800b5
:10080000009abe000292be001e4fe8001e40780013
:10081000eb4f5000f3ff3600ca24a8000000eb00a5
:1008200060268800caa4a900ca24a9000c003700c9
:1008300080002000002688000040eb00a4f0b700f4
:100840000040eb00aaf0b700abd0bf0060406000f2
:10085000abf0b700acd0bf0060406000acf0b700b8
:100860000026800068006000e00f5000f0ff3a00b2
:1008700010002000208688001000200030868800ac
:100880000000eb00408688000000eb0050868800e6
:100890000000eb00a08588000040eb00004f7800ce
:1008a0001b0037009e4078000180fb008000400064
:1008b000a0092100008040008000eb0001087800c2
:1008c0009e4078000180fb0080004000400921002c
:1008d000008040008000eb00010878001e40780096
:1008e0008080fb00a00b2100808040000040eb00d6
:1008f000804878001e4078008080fb00d00b2100eb
:10090000808040000040eb00804878001e4fe800e7
:100910001e407800e24f5000e2ff36000021210027
:10092000d0848800d000200000278800c00c21005f
:10093000209088001190800000c02f00008060008f
:100940000030a0001090880040082000009088002f
:100950000040eb008cf0b7000000eb0050848800f2
:100960000080fa00000006003600f800809fbe00fc
:10097000829fbe00849fbe00869fbe003200f800aa
:100980000020200090018800000000000200fa0012
:1009900050848000e10f500006003a00f00f200064
:1009a00000268800c204a800c284a80020002000fd
:1009b000508488004024800070006000e00f5000e8
:1009c000070032005024800070006000e00f5000eb
:1009d0000300320000012000402488006a0607005e
:1009e0008024800062006000e00f500002003200ae
:1009f0000ac8a9009d003700002680006100600041
:100a0000e00f50000a0032001026800061006000f4
:100a1000e00f50000600320059ff07002ac8a80066
:100a2000400020005084880010002000002688002c
:100a30000026800070006000e00f500007003200c8
:100a40001026800070006000e00f500003003200ac
:100a500041060700000120000026880000268000d3
:100a600064006000e00f5000140032001026800087
:100a700064006000e00f500004003200120020000b
:100a80008000eb0030072000b50c0700400020007c
:100a900000268800c0d0bf00e04f500003003200a5
:100aa000c0d0bf000040e900c0f0b700c0d0bf0018
:100ab000e04f500001003a00c30207000126800009
:100ac0000008200000806000e00f500006003200a7
:100ad000112680000008200000806000e00f500018
:100ae00001003200f305070000268000620060006c
:100af000e00f50000c003200102680006200600001
:100b0000e00f500008003200120020008000eb00cf
:100b1000f0ff2700920c0700f00f2000202688002d
:100b2000200020000026880050848000e30f500041
:100b300002003e000ac8a9004c00370010268000c1
:100b400068006000e00f5000470032000040eb00fa
:100b5000004f78003f0037000026800068006000ea
:100b6000e00f50003f003200402680000040780037
:100b7000b6f0b700b6d0bf000080fb004400de0036
:100b800000407800b7f0b700800020000026880001
:100b9000b6d0bf0068406000e04f500012003a003d
:100ba000b7d0bf000081fb008080fb00d00b21008c
:100bb000008040009040780061c060000004a20006
:100bc00061406000d10b2100810141006140600063
:100bd00013417800e1cfb3008140610000c0700094
:100be0008049780011003700b7d0bf000081fb00ba
:100bf0008080fb00a00b2100008040009040780026
:100c000061c060000004a20061406000a10b2100ef
:100c1000810141006140600013417800e1cfb300e1
:100c20008140610000c0700080497800b7d0bf00eb
:100c3000e04f500002003a00df05070004003700d3
:100c40000001eb00610b210020072000440c07008d
:100c50001e4fe8001e407800e34f5000beff3600f4
:100c600001003700000000000ac8a9000080fa0057
:100c70003200f9004f03be004f02be004f01be001c
:100c80004f00be003600f900004006000400fa00e4
:100c900020479800314798003e4090000080fb00bc
:100ca00068006000e00f5000030032008040eb005d
:100cb0002e409000fd0207003e4090000080fb00a7
:100cc00064006000e00f50000300320011c0b30068
:100cd0002e409000f5020700014e20002e409000ab
:100ce0000080fb0000004000008f40001e007800e4
:100cf000be409000014878000080fa000000060025
:100d00000800fa0020479800314798002207980011
:100d1000634798003e409000e04f500007003200cb
:100d20002e4090000080fb0080004000a0092100c0
:100d300000804000100f7800060037002e40900021
:100d40000080fb008000400040092100008040003e
:100d5000100f78001e007800e00f500002003a00eb
:100d60000000eb006b0037002e0190001e007800a1
:100d7000f10f200081016100c0409000e0c06000e0
:100d800083c07000414098004811de00d0409000c0
:100d9000e0c0600082c07000514098006e4090003a
:100da0008080fb00f03f2000808060001e00780003
:100db000f20f2000828160002041900060416100bc
:100dc0000341710022409800c808de00e380600003
:100dd000e3c06000b0419000c2cfb30002c1610027
:100de00081407100314098001e0078001041780069
:100df0008280fb00104090000080fb004800dd0076
:100e00000100700080007800000420000081600074
:100e10001e007800f10f20008101610090407800f1
:100e2000e0c0600083c07000014878004811de0017
:100e300090409000e0c0600082c0700011409800b7
:100e40001e007800104178008280fb001040900066
:100e50000080fb004800dd00010070008000780089
:100e600080082000008170001e007800f10f200033
:100e70008101610090407800e0c0600083c0700094
:100e8000014878004811de0090409000e0c060000a
:100e900082c07000114098003e409000e04f50002a
:100ea0000e003200a10921002e4090000080fb00be
:100eb0000000400080804000a20921002e409000e8
:100ec0000080fb000000400000004100104078005e
:100ed0000034a200804878000d003700410921004d
:100ee0002e4090000080fb00000040008080400009
:100ef000420921002e4090000080fb0000004000cd
:100f000000004100104078000034a20080487800c2
:100f10001e0078000080fa00000006000400fa00bd
:100f200020479800314798002e409000e04f500035
:100f300029003a0090848000a0409000e0c060004a
:100f40000134a0002140980030419000c1cfb3008f
:100f5000814061003140980090848000c20c2100e3
:100f6000f10f200081016100c0409000e0c06000ee
:100f700083c07000414098004811de00d0409000ce
:100f8000e0c0600082c070005140980090848000f2
:100f90009040780060c16000c1c8b300814071001a
:100fa0000148780090409000e0c060001140980037
:100fb000d08480009040780060c1600041c8b300d8
:100fc000814071000148780090409000e0c06000ce
:100fd00011409800420037002e4090000080fb0036
:100fe00000004000800078003e4090000080fb0040
:100ff000008040004400dd008000780000202100d7
:10100000008f40001e007800104178008280fb00b5
:10101000104090000080fb004800dd0001007000df
:101020008000780040082000008170001e007800d9
:10103000f10f20008101610090407800e0c0600065
:1010400083c07000014878004811de009040900095
:10105000e0c0600082c07000114098002e409000f7
:101060000080fb0000004000800078003e409000bf
:101070000080fb00008040004400dd00e8004000ec
:1010800000202100008f40001e00780010417800f1
:101090008280fb00104090000080fb004800dd00d3
:1010a000010070008000780040082000008170007e
:1010b0001e007800f10f200081016100904078004f
:1010c000e0c0600083c07000014878004811de0075
:1010d00090409000e0c0600082c070001140980015
:1010e0000080fa00000006000200fa00889fbe009f
:1010f0008a9fbe00004f7800512680000002200029
:1011000000806000e00f5000030132009e40780034
:101110000180fb0080004000a00921000080400009
:10112000100278001e4178000280fb008000400021
:10113000a0092100008040009002780095417800cd
:101140008383fb00154390000683fb004833dd00da
:101150000703730006007800254390008683fb0098
:10116000354390000683fb004833dd00070373001e
:1011700086007800454390008683fb00554390002d
:101180000683fb004833dd00070373000601780087
:10119000654390000683fb00f54290008582fb00ca
:1011a000c82add00868272008501780008042000cc
:1011b000090020006055b8000000640081806400d0
:1011c0000201650083816500f50f200005036000c2
:1011d00094427800e0c2620086c27200054a78003c
:1011e0004803de0094429000e0c2620086c27200b2
:1011f00015429800f50f200005836000a44290007e
:10120000e0c2620086c2720025429800480bde00f0
:10121000b4429000e0c2620086c27200354298007b
:10122000f50f200005036100c4429000e0c2620097
:1012300086c27200454298004813de00d4429000f6
:10124000e0c2620086c2720055429800f50f20008d
:1012500005836100e4429000e0c2620086c2720031
:1012600065429800c818de0074409000604060003d
:1012700001407000704298009e4078000180fb00a1
:1012800080004000a009210000804000100278008a
:101290001e4178000280fb0080004000a009210070
:1012a0000080400090027800954178008383fb0025
:1012b000154390000683fb004833dd0007037300ed
:1012c00006007800254390008683fb00354390009c
:1012d0000683fb004833dd000703730086007800b7
:1012e000454390008683fb00554390000683fb0036
:1012f0004833dd0007037300060178006543900062
:101300000683fb00f54290008582fb00c82add00c1
:101310008682720085017800080420000900200000
:101320006055b80000006c0081806c0002016d0007
:1013300083816d00f50f2000050360009442780062
:10134000e0c2620086c27200054a78004803de00ef
:1013500094429000e0c2620086c27200154298007a
:10136000f50f200005836000a4429000e0c26200f7
:1013700086c2720025429800480bde00b4429000fd
:10138000e0c2620086c2720035429800f50f20006c
:1013900005036100c4429000e0c2620086c2720090
:1013a000454298004813de00d4429000e0c262003b
:1013b00086c2720055429800f50f20000583610037
:1013c000e4429000e0c2620086c27200654298006a
:1013d000c818de007440900060406000014070005a
:1013e00070429800a10921001e4178000280fb0094
:1013f0000000400080804000a20921009e4178004a
:101400000380fb0000004000000041001040780015
:101410000034a200804878009e4078000180fb00e4
:1014200080004000a00921000080400010007800ea
:101430001e4178008280fb0001814000a10921004b
:101440008100410091007800914178000381fb0008
:10145000914090008180fb00c808dd008280700010
:10146000010178000104200001016100f10f20005a
:101470008101610090407800e0c0600083c070008e
:10148000014878004811de0090409000e0c0600004
:1014900082c07000114098009e4078000180fb00df
:1014a00080004000a009210000804000100078006a
:1014b0001e4178008280fb0001814000a1092100cb
:1014c0008100410091007800914178000381fb0088
:1014d000914090008180fb00c808dd008280700090
:1014e000010178000104200001016900f10f2000d2
:1014f0008101610090407800e0c0600083c070000e
:10150000014878004811de0090409000e0c0600083
:1015100082c07000114098004f05be004f04be000d
:101520000080fa00000006000000fa000000eb0056
:10153000502688000000eb00102688000000eb0019
:10154000508488000080fa00000006000000fa00c5
:1015500050848000e00f500019003a000000eb00ba
:10156000502688000000eb00102688000000eb00e9
:10157000e0268800f009200030268800f0092000cd
:10158000102688002ac8a80051438000f08f2f0041
:101590008080600000402000008070005043880080
:1015a00001003700ca04a8005026800061006000d6
:1015b000e00f5000fbff3200100020005084880034
:1015c0000080fa00000006000000fa00208680007b
:1015d000e00f500061003a001000200020868800d3
:1015e00030868000e00f50005c003a0010002000c0
:1015f00030868800a1d0bf00e24f500012003a00b0
:10160000d0848000a0409000e0c06000214098009d
:1016100030419000c1cfb30081406100314098005b
:10162000d08480009040780060c1600081ccb3001d
:10163000814071000148780090409000e0c0600057
:101640001140980045003700a1d0bf00e14f500085
:1016500042003a000000eb00c085880080848000d2
:10166000a0409000e0c060000134a000214098003c
:1016700030419000c1cfb3008140610031409800fb
:1016800080848000c20c2100f10f200081016100e4
:10169000c0409000e0c0600083c0700041409800ee
:1016a0004811de00d0409000e0c0600082c07000b1
:1016b00051409800808480009040780060c16000b4
:1016c00041c8b3008140710001487800904090000b
:1016d000e0c060001140980010002000c085880024
:1016e00090848000a0409000e0c060000134a00021
:1016f0002140980030419000c1cfb300814061008b
:101700003140980090848000c20c2100f10f20002d
:1017100081016100c0409000e0c0600083c07000a3
:10172000414098004811de00d0409000e0c06000c9
:1017300082c07000514098009084800090407800f2
:1017400060c1600001c8b3008140710001487800a9
:1017500090409000e0c06000114098000080fa00c6
:10176000000006000000fa000000eb004086880040
:101770000000eb0050868800a1d0bf00e24f50006f
:1017800020003a0090848000a0409000e0c06000fb
:101790000134a0002140980030419000c1cfb30037
:1017a000814061003140980090848000420d21000a
:1017b000f10f200081016100c0409000e0c0600096
:1017c00083c07000414098004811de00d040900076
:1017d000e0c0600082c0700051409800908480009a
:1017e0009040780060c1600081ccb30081407100fe
:1017f0000148780090409000e0c0600011409800df
:1018000028003700d2d0bf008080fb00d3d0bf00bb
:101810000080fb004800dd000100700080007800bf
:1018200030858000808f500007003100d2d0bf008b
:101830008080fb00d3d0bf000080fb004800dd00ab
:101840000100700030858800c8000700d084800047
:10185000420d2100f10f200081016100c040900085
:10186000e0c0600083c07000414098004811de0075
:10187000d0409000e0c0600082c0700051409800ed
:10188000d08480009040780060c1600081ccb300bb
:10189000814071000148780090409000e0c06000f5
:1018a000114098000080fa00000006000400fa00d1
:1018b000204798003147980000202100000f780051
:1018c0002e4090000080fb00000040008000780067
:1018d0003e4090000080fb00008040004400dd009e
:1018e0001e0f40009e007800114078000074a10097
:1018f000804878003e409000e04f500007003a00da
:101900002e4090000080fb00800040004009210034
:10191000008040001e087800060037002e4090002e
:101920000080fb0080004000a009210000804000f2
:101930001e0878001e01780092407800f0cbb300ba
:1019400000c06000004978001e0078006801400077
:101950009240780000c4b30000c0700000497800d5
:101960000080fa00000006000000fa00caa4a900e6
:10197000218580000008200000806000e00f5000fa
:101980003a003a00a10a21009140780000c8b30053
:1019900000c06000e04f50000b00320020c0b300d8
:1019a000a1f0b70050868000e00f500001003a001f
:1019b0006cff07000000eb00308688000000eb00a1
:1019c000208688006700370090848000a040900047
:1019d000e0c060000134a000214098003041900038
:1019e000c1cfb300814061003140980090848000f5
:1019f000c20c2100f10f200081016100c040900065
:101a0000e0c0600083c07000414098004811de00d3
:101a1000d0409000e0c0600082c07000514098004b
:101a2000908480009040780060c16000c1c8b3001d
:101a3000814071000148780090409000e0c0600053
:101a400011409800d08480009040780060c1600010
:101a500041c8b30081407100014878009040900077
:101a6000e0c06000114098003e003700c10c21002a
:101a70009140780000c8b30000c06000e04f500003
:101a80000f00320010c0b300a1f0b7004086800004
:101a9000e00f500001003a0032ff07000000eb00a9
:101aa000308688000000eb002086880010868000c9
:101ab000e00f50002b003a00c3fe0700290037005a
:101ac00020c0b300a1f0b70090848000a040900037
:101ad000e0c060000134a000214098003041900037
:101ae000c1cfb300814061003140980090848000f4
:101af000c20c2100f10f200081016100c040900064
:101b0000e0c0600083c07000414098004811de00d2
:101b1000d0409000e0c0600082c07000514098004a
:101b2000908480009040780060c1600041c8b3009c
:101b3000814071000148780090409000e0c0600052
:101b4000114098000000eb00308688000000eb0098
:101b50002086880010868000e00f500001003a00c7
:101b600099fe07000080fa00000006000200fa005b
:101b700080c0b300004f780030858000e70f500030
:101b80000d003e0030858000004f7800a0d0bf00df
:101b9000e04f500003003a0010c0b300a0f0b700bf
:101ba00005003700a0d0bf00e14f500002003a000e
:101bb00020c0b300a0f0b700318580001e4178003e
:101bc0000280fb000080500030858800d0848000b7
:101bd0001e4178008280fb00f23f2000828060007e
:101be000f20f20008281600020419000604161007e
:101bf0000341710022409800c808de00e3806000c5
:101c0000e3c06000b0419000c2cfb30002c16100e8
:101c10008140710031409800400d2100808588008e
:101c20002085800061006000e00f500017003a003e
:101c300009003700828580001185800011407800fe
:101c4000004978000200e800808588000100e80073
:101c5000108588001e4fe9001e407800e04f5000bc
:101c6000f4ff3a000c003700828580001185800067
:101c700011407800004978000200e8008085880063
:101c80000100e800108588001e4fe9001e40780022
:101c9000e04f5000f4ff3a000080fa000000060018
:101ca0000200fa0081848000214090000081fb0046
:101cb000314090000080fb00630060004800dd00c0
:101cc00002007000004f78001e4078008080fb000a
:101cd000abd0bf000081fb00acd0bf000080fb0098
:101ce0004800dd0002007000808f500007003600c1
:101cf000abd0bf008080fb00acd0bf000080fb00f9
:101d00004800dd0001007000004f7800abd0bf003c
:101d10008080fb00acd0bf000080fb004800dd00ed
:101d200001007000800078001e4178000280fb00f6
:101d300080805000f00f200000816000abd0bf0019
:101d40006040600002407000abf0b700c808de00e1
:101d5000acd0bf006040600001407000acf0b70044
:101d60000040eb00104798001c003700a8d0bf00cf
:101d70008080fb00a9d0bf000080fb004800dd0090
:101d800001007000800078001e4090000081fb0080
:101d9000400d21000000410010407800804878008c
:101da0008100e800f00f200000816000a8d0bf0093
:101db0006040600002407000a8f0b700c808de0074
:101dc000a9d0bf006040600001407000a9f0b700da
:101dd0001e4090000040e800104798001e40900010
:101de0009e4f5000e1ff3900abd0bf008080fb0068
:101df000acd0bf000080fb004800dd000100700097
:101e0000e00f50002f00320090848000a04090002e
:101e1000e0c060000134a0002140980030419000f3
:101e2000c1cfb300814061003140980090848000b0
:101e3000420d2100f10f200081016100c04090009f
:101e4000e0c0600083c07000414098004811de008f
:101e5000d0409000e0c0600082c070005140980007
:101e600080848000104078000044b200e04f5000b1
:101e70000a003a00908480009040780060c16000c1
:101e800081ccb300814071000148780090409000ff
:101e9000e0c06000114098003d0037009084800051
:101ea0009040780060c1600081c8b300814071003b
:101eb0000148780090409000e0c060001140980018
:101ec0003300370090848000a0409000e0c06000a4
:101ed0000134a0002140980030419000c1cfb300f0
:101ee000814061003140980090848000c20c210044
:101ef000f10f200081016100c0409000e0c060004f
:101f000083c07000414098004811de00d04090002e
:101f1000e0c0600082c07000514098009084800052
:101f20009040780060c1600041c8b30081407100fa
:101f30000148780090409000e0c060001140980097
:101f4000add0bf008080fb00aed0bf000080fb00a2
:101f50004800dd0001007000e00f50000700320073
:101f6000add0bf008080fb00aed0bf000080fb0082
:101f70004800dd000100700000000100aaf0a90087
:101f800010868000e00f500001003a008efd07002f
:101f90000080fa00000006000200fa00a4f0a80089
:101fa000420020008000eb00204e20007af907005c
:101fb000020620008000eb000020210076f90700d7
:101fc000ca24a8000040eb00004f78000d00370045
:101fd0001e4078008080fb00a00b21008080400024
:101fe0000040eb00804878001e4078008080fb00b5
:101ff000d00b2100808040000040eb00804878003a
:102000001e4fe8001e407800e24f5000f0ff3600ff
:10201000220020008000eb00d00821005ef90700bc
:10202000ca24a90000212100d084880000202100ba
:10203000808488008084800090848800ced0bf0097
:102040008cf0b7008cd0bf00e04f500003003a0086
:102050000001200050848800060037001200200094
:10206000c1082100100020003d07070000022000e9
:10207000508488000080fa00000006000000fa008a
:10208000c10c21009140780000c8b30080cf5000ff
:1020900036003a0000ccb300a4f0b700cfd0bf00a8
:1020a0000080fb00e20f500009003200e30f5000f7
:1020b00018003200e10f500029003a00002e2800dd
:1020c0001085880020012000308588002700370017
:1020d000ced0bf000080fb000000400080007800f0
:1020e000203a280000804000100078001085880009
:1020f000108580000080e80010407800a6f0b7004e
:10210000108580006300400010407800a7f0b70001
:1021100016003700ced0bf00e24f50000d003e0049
:10212000ced0bf000080fb0000004000800078009f
:10213000403a280000804000100078001085880098
:1021400010858000104078000080fb0030858800fa
:10215000060037000040eb00a4f0b7000300370092
:102160000040eb00a4f0b700000000000080fa007f
:10217000000006000200fa000040eb00d4f0b700b7
:102180000040eb00d5f0b700ccd0bf007f4060002e
:102190000080fb00e10f50000f003200e20f500002
:1021a0000f003200e00f500036003a00a4f0a80003
:1021b000d4d0bf000004a000d4f0b7009085800008
:1021c000e10f50002a003a00d4d0bf000014a00054
:1021d000d4f0b7002b003700a4f0a8002900370086
:1021e000a4f0a800010d21009140780000c8b300c0
:1021f00000c06000e04f500008003a00d0d0bf009f
:102200006f4060000080fb0080004000400921001a
:1022100000804000100f780007003700d0d0bf00ca
:102220006f4060000080fb0080004000a00921009a
:1022300000804000100f78001e0078009040780069
:1022400000c8b30000c06000e04f50000a00320038
:102250001e0078001040780064406000e04f50009d
:102260000700320010c0b300d4f0b70005003700fb
:1022700000000000030037000000000001003700ec
:102280000000000021858000000820000080600020
:10229000e00f500005003200400d2100108588003d
:1022a000a410a80020c0b300a6f0b7000080fa0078
:1022b000000006000000fa000027800062006000b5
:1022c000e00f500020003200808480001041780030
:1022d0008280fb00104090000080fb004800dd0081
:1022e000010070008000780000082000808f5000fe
:1022f00014003a00d0848000104178008280fb00f6
:10230000104090000080fb004800dd0001007000dc
:102310008000780040082000808f500009003a00bb
:10232000808480009040780060c16000c1c8b30024
:10233000814071000148780090409000e0c060004a
:1023400011409800e024a900000820000026880021
:102350000080fa00000006000000fa008a84a8004d
:10236000000120000026880010002000a0858800c1
:102370000001eb008000eb0050072000780607000a
:102380000080fa00000006000000fa000000eb00e8
:10239000a08588000001eb008000eb0040072000d2
:1023a0006f0607008a84a9000001200040248800ed
:1023b0000080fa00000006000200fa00d0c2b3005c
:1023c000c0f0b700b6d0bf008080fb00b0ff2f0088
:1023d00000806000e00f50004f003a00b6d0bf0010
:1023e0000080fb004200de00004078000080fb001f
:1023f000c300dd00002021000080400080848800b0
:102400008084800090848800210921002009210017
:10241000104078000034a20080487800808480005a
:1024200010407800c2c3b3008240600040c3b300d4
:1024300080cf500036003a000040eb00004f78009b
:10244000210037001e4078008080fb00c00c210076
:102450000081400081848000414090008081fb0029
:10246000514090000080fb004800dd000300700038
:10247000104078000049780080848000c0409000bf
:102480000181fb00d04090008180fb00c808dd0086
:10249000828070000101e800f10f200081016100dd
:1024a000c0409000e0c0600083c0700041409800d0
:1024b0004811de00d0409000e0c0600082c0700093
:1024c000514098001e4fe8001e407800e74f500032
:1024d000dcff360080848000c20c2100f10f200058
:1024e00081016100c0409000e0c0600083c07000c6
:1024f000414098004811de00d0409000e0c06000ec
:1025000082c07000514098000c000700090037009d
:102510007700070007003700b6d0bf008080fb00bf
:10252000b0ff2f0000806000e80f500001003a006b
:102530009e0007000080fa00000006000000fa007c
:102540000040eb00a0f0b7000000eb001086880010
:102550000000eb00408688000000eb0050868800f9
:102560000000eb00c08588000040eb00a1f0b70040
:10257000d0848000d1848000914178000381fb00e9
:10258000914090008180fb00c808dd0082807000cf
:1025900001017800f1f72f0001016100f10f200027
:1025a0008101610090407800e0c0600083c070004d
:1025b000014878004811de0090409000e0c06000c3
:1025c00082c0700011409800a1092100a0092100db
:1025d000104078000034a20080487800d084800049
:1025e000d1848000914178000381fb0091409000ec
:1025f0008180fb00c808dd00828070000101780046
:10260000f1f72f0001016100f10f2000810161004d
:1026100090407800e0c0600083c0700001487800fe
:102620004811de0090409000e0c0600082c0700061
:1026300011409800a1092100a00921001040780054
:102640000034a2008048780090848000918480004b
:10265000914178000381fb00914090008180fb0054
:10266000c808dd008280700001017800f1f72f00ba
:1026700001016100f10f20008101610090407800ac
:10268000e0c0600083c07000014878004811de009f
:1026900090409000e0c0600082c07000114098003f
:1026a0000040eb00a4f0b7000000eb00308588008c
:1026b0000040eb00aaf0b700abd0bf006040600064
:1026c000abf0b700acd0bf0060406000acf0b7002a
:1026d0009f0007000001eb008000eb0030002000ad
:1026e0009f050700a0fc07000080fa00000006001c
:1026f0000000fa00a1d0bf00e24f500002003a00f3
:1027000067fd0700270037000040eb00a1f0b7008d
:10271000c0858000e00f500020003a0090848000c7
:10272000a0409000e0c060000134a000214098006b
:1027300030419000c1cfb30081406100314098002a
:1027400090848000c20c2100f10f20008101610003
:10275000c0409000e0c0600083c07000414098001d
:102760004811de00d0409000e0c0600082c07000e0
:1027700051409800908480009040780060c16000d3
:10278000c1c8b300814071000148780090409000ba
:10279000e0c0600011409800020037000000eb002c
:1027a000c08588000080fa00000006000200fa00e0
:1027b000d0848000904078000180fb004600de005d
:1027c00061406000004f7800a1092100a0092100ac
:1027d000104078000034a2008048780050848000c7
:1027e000e80f50000b003a00ced0bf000080fb0085
:1027f0006026880060268000e00f50000300320051
:1028000000012000508488000200370040002000b2
:1028100050848800a1d0bf00e14f500032003a0040
:10282000d0848000420d2100f10f20008101610061
:10283000c0409000e0c0600083c07000414098003c
:102840004811de00d0409000e0c0600082c07000ff
:1028500051409800c5fc0700a0d0bf00e24f5000d7
:102860000a003a00d08480009040780060c1600087
:1028700041c8b30081407100014878009040900049
:10288000e0c06000114098002f0037001e40780023
:10289000e04f50000a003a00d08480009040780059
:1028a00060c1600081ccb3008140710001487800b4
:1028b00090409000e0c06000114098002200370076
:1028c000d08480009040780060c1600081c8b3006f
:1028d000814071000148780090409000e0c06000a5
:1028e0001140980018003700a10a2100914078009b
:1028f00000c8b30000c06000e04f5000100032007c
:10290000add0bf008080fb00aed0bf000080fb00d8
:102910004800dd0001007000e00f500007003200a9
:10292000add0bf008080fb00aed0bf000080fb00b8
:102930004800dd000100700000000100aaf0a900bd
:102940000040eb00a1f0b7000080fa000000060094
:102950000000fa00ccd0bf000046b200e04f5000ab
:102960003f003a00cdd0bf000080fb00cf80de00ea
:10297000b200200003002000820f5000838f580017
:1029800039003e00000601001a0037001b00370026
:1029900037003700190037003500370006003700d0
:1029a00009003700290037000b0037000800370006
:1029b000140037001d003700a4f0a800800020009c
:1029c000508488002b003700acfd07002900370039
:1029d00071fd070027003700c0082100108588001e
:1029e000a410a80010c0b300a6f0b700a4f0a8007f
:1029f00020003700dffd07001e0037001f00070022
:102a00001c003700d0d0bf008080fb00d008210020
:102a10000080400010858800a410a80010c0b300fa
:102a2000a6f0b700a4f0a80012003700a4f0a80098
:102a3000d0d0bf000081fb00ced0bf00d108210064
:102a400081004100804878000a0037000001eb0057
:102a50008000eb0020002000c104070005003700c3
:102a600000000000030037000000000001003700f4
:102a7000000000000080fa00000006000600fa00d6
:102a8000ced0bf00e14f50000d003a00ccd0bf00c7
:102a90007f406000e04f500009003a00a4f0a80019
:102aa000cdd0bf00e34f500003003a0010002000db
:102ab00090858800020037000000eb0090858800b8
:102ac000ced0bf00e04f50004e013a00ccd0bf0046
:102ad0007f406000e24f50004a013a00d0d0bf0072
:102ae0006f406000e04f500046013200d0d0bf0080
:102af0006f4060000080fb00e20f500041013c008d
:102b00005184800000022000808f50003d013a0077
:102b1000a4f0a800010d21009140780000c8b30086
:102b200000c06000e04f500010003a00d0d0bf005d
:102b30006f4060000080fb008000400040092100e1
:102b4000008040001000780010079800d0d0bf002f
:102b50006f4060008080fb00d00b210000804000af
:102b600010407800404798000f003700d0d0bf00d9
:102b70006f4060000080fb0080004000a009210041
:102b8000008040001000780010079800d0d0bf00ef
:102b90006f4060008080fb00a00b2100008040009f
:102ba00010407800404798004e409000614060001f
:102bb000e04f500007003a000e81e8000e80e80068
:102bc0009040780070cfb30000c0600000497800ea
:102bd000050037008e80e8000e80e8001040780085
:102be0000034a00080487800010d21009140780059
:102bf00000c8b30000c06000e04f500009003a0078
:102c0000d0d0bf006f4060000080fb009e009000ad
:102c10000001400040092100000041000108780047
:102c200008003700d0d0bf006f4060000080fb007c
:102c30009e00900000014000a0092100000041001a
:102c400001087800cdd0bf00e34f500034003a00b7
:102c50001e0090009040780000c8b30000c06000e3
:102c6000e04f500017003200010d21009140780024
:102c700000c8b30000c06000e04f500009003a00f7
:102c8000d0d0bf006f4060008080fb00d00b2100df
:102c900080804000114078000014a0008048780037
:102ca00008003700d0d0bf006f4060008080fb007c
:102cb000a00b210080804000114078000014a0008b
:102cc000804878001e0090009e009000914178009e
:102cd0000381fb00914090008180fb00c808dd006b
:102ce000828070000101780041082000010171001c
:102cf000f10f20008101610090407800e0c0600089
:102d000083c07000014878004811de0090409000b8
:102d1000e0c0600082c0700011409800b900370028
:102d20008e80e8000e80e800104078000034a20099
:102d3000804878001e0090009040780000c8b300e2
:102d400000c06000e04f5000320032001e009000d2
:102d50009e009000914178000381fb00914090001b
:102d60008180fb00c808dd008280700001017800ce
:102d7000f1f72f0001016100f10f200081016100d6
:102d800090407800e0c0600083c070000148780087
:102d90004811de0090409000e0c0600082c07000ea
:102da000114098001e0090009e0090009141780014
:102db0000381fb00914090008180fb00c808dd008a
:102dc000828070000101780001042000010171007f
:102dd000f10f20008101610090407800e0c06000a8
:102de00083c07000014878004811de0090409000d8
:102df000e0c0600082c07000114098001e0090008a
:102e0000220020008000780050002000d40307003a
:102e1000160037001e0090009e009000914178003f
:102e20000381fb00914090008180fb00c808dd0019
:102e3000828070000101780001042000010171000e
:102e4000f10f20008101610090407800e0c0600037
:102e500083c07000014878004811de009040900067
:102e6000e0c0600082c07000114098008e80e800d1
:102e70000e80e800104078000034a20080487800fe
:102e80004e40900062406000e04f500006003a0063
:102e90001e0090009040780000c8b30000c06000a1
:102ea000e04f500035003200010d210091407800c4
:102eb00000c8b30000c06000e04f50000a003a00b4
:102ec000d0d0bf006f4060008080fb00d00b21009d
:102ed0000081400092407800d0cfb30000c0600075
:102ee0000049780009003700d0d0bf006f40600073
:102ef0008080fb00a00b2100008140009240780000
:102f0000d0cfb30000c06000004978001e009000e0
:102f10009e009000914178000381fb009140900059
:102f20008180fb00c808dd0082807000010178000c
:102f3000b1f32f0001016100f10f20008101610058
:102f400090407800e0c0600083c0700001487800c5
:102f50004811de0090409000e0c0600082c0700028
:102f6000114098001e009000220020008000780090
:102f7000500020007a030700160037001e00900062
:102f80009e009000914178000381fb0091409000e9
:102f90008180fb00c808dd0082807000010178009c
:102fa000b1f32f0001016100f10f200081016100e8
:102fb00090407800e0c0600083c070000148780055
:102fc0004811de0090409000e0c0600082c07000b8
:102fd00011409800014e2000d0d0bf006f4060002b
:102fe0000080fb0000004000008f40001e007800c1
:102ff00090407800d0cfb30000c060009e00780001
:10300000804878000080fa00000006000000fa0006
:10301000ccd0bf007f406000e14f500074003a0008
:10302000ccd0bf0002c6b3008240600000c2b30033
:1030300080cf500070003a00d0d0bf00e04f500069
:1030400003003200d0d0bf00e14f50006c003a00c6
:10305000cdd0bf000080fb00cf80de002202200028
:1030600003002000820f5000838f580066003e004e
:1030700000060100220037002800370064003700f6
:1030800063003700620037006100370060003700de
:103090005f0037005e0037005d0037005c003700de
:1030a0005b0037005a0037005900370058003700de
:1030b00057003700560037005500370054003700de
:1030c00053003700520037005100370050003700de
:1030d0004f0037004e0037004d0037004c003700de
:1030e0004b0037004a0037004900370048003700de
:1030f000470037000d003700320037003800370036
:10310000600f210010858800800020003085880035
:10311000a410a800a4f0a8003e003700600f210012
:1031200010858800a4f0a8003a003700d2d0bf0074
:103130008080fb00d3d0bf000080fb004800dd0092
:103140000100700080007800f00f20000081600016
:10315000abd0bf006040600002407000abf0b70031
:10316000c808de00acd0bf006040600001407000c5
:10317000acf0b700c10d2100f00f2000008160000d
:10318000a8d0bf006040600002407000a8f0b70007
:10319000c808de00a9d0bf00604060000140700098
:1031a000a9f0b700add0bf0060406000adf0b7003f
:1031b000aed0bf0060406000aef0b700aaf0a8003b
:1031c00014003700c00d2100108588007000200019
:1031d0003085880010ccb300a4f0b7000d00370094
:1031e000ced0bf00f0f0b700a4f0a800090037006f
:1031f0000000000007003700000000000500370055
:10320000000000000300370000000000010037004c
:10321000000000000080fa00000006000000fa0034
:1032200000b0240001002000e0868800f1868800bc
:103230000040eb00e0f0b7000040eb00e1f0b70029
:1032400080c0b300e2f0b7000040eb00e4f0b7004c
:1032500051c1b30010c0b3008cf60700d1c1b30058
:1032600020c0b30089f6070003c4b300e2132100b5
:103270008040eb0020c0b300a1f607006087880003
:103280000000eb00708788000040eb00e5f0b7001d
:103290000080fa00000006000600fa00000f780027
:1032a00011079800220798001e007800e50f5000d3
:1032b00014003a00608780009e009000808f5000cc
:1032c00006003a0003c4b300e21321008040eb0083
:1032d00020c0b3008af607006087880070878000ee
:1032e0009e009000808f500004003a000040eb00e8
:1032f000e5f0b7000040eb00eaf0b7001000200056
:10330000010037000000eb000080fa00000006001a
:103310000400fa00000f7800214798000040eb00fd
:10332000e4f0b70060878000e00f50000600320034
:10333000608780009040780000c8b30000c0600043
:10334000e04f500031003a002e4090000081fb0019
:103350006087800080007800214090008081fb0021
:10336000314090000080fb00630060004800dd00f9
:1033700003007000800f51000a0034006087800055
:1033800080007800214090000081fb0031409000d7
:103390000080fb00630060004800dd000200700058
:1033a000204798000040eb00e4f0b7000c00370025
:1033b000e4d0bf000080fb009e004000e4d0bf00ce
:1033c0000080fb00e2132100000041001040780063
:1033d00080487800e4d0bf000040e800e4f0b70087
:1033e000410e2100914078002e40900080cf500087
:1033f000efff390003c4b300e21321008040eb006b
:1034000020c0b3003ef6070060878800e4d0bf000c
:103410000080fa00000006000400fa00000f7800a7
:10342000214798002ac8a900e5d0bf00e04f50000e
:1034300008003a001e007800308788002e40900077
:10344000eaf0b70010c0b300ebf0b70010c0b30053
:10345000e5f0b7002ac8a8000080fa0000000600c6
:103460000600fa00200798002ac8a900e5d0bf008e
:10347000e04f5000020032002ac8a8001e003700aa
:103480000040eb00004f78002e00900010079800dd
:103490001e4fe8001e407800e14f40000c00320053
:1034a0001e009000104078000080fb000000ea0041
:1034b0004f00de00004078009e0090008100e80090
:1034c00011079800e04f5000f1ff3a00010037006b
:1034d000000000002e009000308788001e40780019
:1034e000eaf0b70010c0b300ebf0b70010c0b300b3
:1034f000e5f0b7002ac8a8000080fa000000060026
:103500000600fa00200798002ac8a900e5d0bf00ed
:10351000e04f5000020032002ac8a8001e00370009
:103520000040eb00004f78002e009000100798003c
:103530001e4fe8001e407800e14f40000c003200b2
:103540001e009000104078000080fb000000ea00a0
:103550004f00de00004078009e0090008100e800ef
:1035600011079800e04f5000f1ff3a0001003700ca
:10357000000000002e009000308788001e40780078
:10358000eaf0b7000040eb00ebf0b70010c0b3006a
:10359000e5f0b7002ac8a8000080fa000000060085
:1035a0000200fa002ac8a90070878000e00f5000ce
:1035b00008003200708780009040780000c8b30097
:1035c00000c06000e04f5000020032002ac8a8008e
:1035d00062003700e5d0bf00e34f500002003a0020
:1035e0000040eb00e5f0b700e5d0bf00e04f500031
:1035f00002003a002ac8a80058003700e5d0bf00f2
:10360000e24f500009003a008041eb000001eb005e
:1036100011c0b30020c0b300b9f50700708788005f
:1036200030c0b300e5f0b7004b003700e5d0bf0075
:10363000e14f500048003a00a10e2100914078006f
:1036400000c4b30080cf50000300360000c4b300b4
:10365000004f780002003700ead0bf00004f78002a
:10366000ead0bf001e405000eaf0b700e00f210092
:10367000408788001e40780010479800ebd0bf00bc
:10368000e04f50001f003a000d00370041878000d6
:1036900030878000104078008048780040878000a4
:1036a0000000e80040878800308780000000e800c4
:1036b000308788001e4090000040e90010479800c5
:1036c0001e409000e04f5000f0ff3a00100037001d
:1036d0004187800030878000104078008048780063
:1036e000408780000000e800408788003087800025
:1036f0000000e800308788001e4090000040e9008c
:10370000104798001e409000e04f5000f0ff3a0034
:10371000ead0bf00e04f500009003a0000c4b300f7
:103720009e40780080cf500003003a0020c0b300d4
:10373000e5f0b7000200370030c0b300e5f0b70095
:103740009e417800e20f210011c0b30020c0b300f9
:103750006bf50700708788002ac8a8000080fa006f
:10376000000006000000fa000600070050848000f8
:10377000e00f500001003a0074f707005b000700fb
:10378000faff37000000fa000000eb0070708800bc
:103790000000eb00f07088000000eb007071880002
:1037a0000000eb00f07188000000eb0070728800f0
:1037b0000000eb00707388000000eb0030368800da
:1037c000400620003036880091348000f00f2c0035
:1037d00080806000003020000080700090348800fd
:1037e00060022000303a8800213a8000f0f32f0078
:1037f00000806000203a8800213a800000fe2f00ff
:1038000000806000203a88000000eb00403a880009
:103810003200200080072000a1092000337420001e
:1038200080497800814978008249780012002000a0
:103830006004200071052000237420008049780076
:10384000814978008249780000000000113a800028
:10385000000027008080600000002300808f50005f
:10386000faff3a00104c2200c03a88007000200095
:10387000d03a880059e7a80000000000c13a800053
:103880000000240000806000e00f5000fbff3200c9
:1038900003000700baf307000080fa0000000600ea
:1038a0000000fa000040eb0084f0b7000000eb00dd
:1038b000108488001000200000848800a17180001e
:1038c00080ff2f0000806000a0718800817180005f
:1038d00080ff2f00008060008071880030cea8003b
:1038e00030eea8000080fa00000006000200fa0096
:1038f0005400070050848000ff0f50004c00360039
:103900008024800062006000e00f50004a003a000e
:1039100010848000e00f50000b0032000084800013
:10392000e00f50000a003a00e5d0bf00e04f500021
:1039300007003a00a03a2800f1fe0700100020001e
:1039400000848800020037000000eb00008488003b
:10395000e5d0bf00e04f500033003a0001c4b3008f
:10396000000421006afe0700104798001e409000e6
:10397000e04f50002c0032000040eb00004f780078
:10398000220037001e4078008080fb0000042100e8
:1039900000804000104078000000fb00ea0f50005b
:1039a00002003200ed0f50000b003a001e4078007c
:1039b0000081fb001e4078008080fb000004210095
:1039c000008040001040780001002100810041008b
:1039d000804878000c0037001e4078000081fb0012
:1039e0001e4078008080fb00000421000080400021
:1039f000104078000040e8000100210081004100f3
:103a000080487800000000001e4fe8001e40900033
:103a10009e40780080cf5000daff39009e40900031
:103a2000000021007cfe0700ddfe070003003700d8
:103a30000000000001003700000000000080fa00d4
:103a4000000006000000fa0040848000e00f5000f3
:103a500002003a0000712200408488004084800007
:103a60000000e9004084880080248000620060003b
:103a7000e00f50001800320040848000e00f50003a
:103a80005d003a00a0718000e100600010c0b3004a
:103a9000e08f5000010032000040eb000080fb008e
:103aa00061006000a2718000e1ff2f0081006100d1
:103ab00000807000a0718800a0718000610060002b
:103ac000e00f500002003200342ea8004a003700f8
:103ad000342ea9004800370050848000e00f5000c9
:103ae00003003a00340ea900342ea900420037002a
:103af00050848000e10f500003003a00340ea8000b
:103b0000342ea8003c00370050848000e20f5000a3
:103b100003003a00340ea800342ea9003600370006
:103b200050848000e40f500003003a00340ea900d6
:103b3000342ea8003000370050848000f00f500071
:103b400012003a0040848000e00f50002a003a0042
:103b5000a0718000e100600010c0b300e08f500051
:103b6000010032000040eb000080fb0061006000bb
:103b7000a2718000e1ff2f008100610000807000d1
:103b8000a0718800342ea9001b00370051848000ea
:103b900000022000808f500017003a00408480000f
:103ba000e00f500014003a00a0718000e1006000b6
:103bb00010c0b300e08f5000010032000040eb0065
:103bc0000080fb0061006000a2718000e1ff2f0017
:103bd0008100610000807000a0718800a0718000e9
:103be00061006000e00f500002003200342ea90096
:103bf00001003700342ea8000080fa000000060003
:103c00000000fa008a0007000080fa0000000600a9
:103c10000000fa000080fa00000006000000fa0030
:103c2000907180004600de00614060008080fb00f3
:103c300010848000808f500012003a0084d0bf00b2
:103c4000e04f50000400320084d0bf000040e90083
:103c500084f0b7001100370091718000000420004b
:103c60008080600010002000e08f500001003200d2
:103c70000000eb001084880040c6b30084f0b70059
:103c80000600370084d0bf00e04f50000300320030
:103c900084d0bf000040e90084f0b7000080fa0043
:103ca000000006000000fa000080fa000000060094
:103cb0000000fa00d5fc07000080fa0000000600b2
:103cc0000000fa000080fa00000006000000fa0080
:103cd00052fd07000080fa00000006000000fa0014
:103ce00090858000e10f50001b003a00a085800005
:103cf000e10f500018003a002ac8a900c4ff0700cd
:103d00009024a9000000eb00a085880000e12000bd
:103d100030848800308480000000e900308488000e
:103d200030848000e00f5000faff3a00ca44a80037
:103d30008070200030848800308480000000e9001a
:103d40003084880030848000e00f5000faff3a0091
:103d5000ca44a9002ac8a8000080fa000000060092
:103d60000600fa00000f780011079800220798005b
:103d70001e00780021072000810f5000280032002b
:103d800021072000810f50000a003c00e20f500084
:103d90001d003200e20f500003003c00e10f500014
:103da000170032001f003700e30f500018003200e8
:103db0001c00370041072000810f50000e00320028
:103dc00041072000810f50000700350051072000f7
:103dd000810f500006003200f1ff2700810f5000d4
:103de0000d0032000f0037008cff07000d00370078
:103df00083ff07000b00370085ff0700090037002d
:103e0000b2ff070007003700adff070005003700cd
:103e1000a7ff070003003700a2ff070001003700db
:103e200000000000100020000080fa0000000600e2
:103e30000800fa0030268000000f7800102680006d
:103e400010079800502480002007980050418000ff
:103e50004600de0061406000604798000000eb0013
:103e6000302688000000eb00102688000000eb00e0
:103e7000502488000ac8a9008a84a80000012000f4
:103e8000402488002ac8a8000040fe006e40900030
:103e9000614060000080fb00610060004600dd00c2
:103ea00052418000f1fb2f00810061000080700012
:103eb000504188001e007800302688001e009000c7
:103ec000102688002e00900050248800100020004a
:083ed0000080fa00000006006a
:020000040000fa
:103ed8008a1000005200000080000000001200005c
:103ee8006000000080000000fe1000008a00000052
:103ef80080000000dc1000002200000080000000ac
:103f0800001000008a00000080000000000000008f
:020000040000fa
:0200000401f009
:04000c00f8ff0000f9
:020000040000fa
:0200000401f009
:040010007dff000070
:020000040000fa
:0200000401f009
:040014007fff00006a
:00000001FF
