:020000040000fa
:080000000002040000000000f2
:020000040000fa
:100400002f4521000eff22000e0188000000000091
:100410000c00070000482000010020000f0007002a
:10042000000020000000e000020032000000020096
:1004300000000000fc030200000000000040da00a1
:100440000000fe00000020000000e000020032007a
:10045000000020009001880000000600a102880032
:10046000800078000000eb001a003700e2804000b6
:1004700054a0b4009101ba00e280400054a0b4003e
:100480009102ba00e280400054a0b4000002eb00e8
:10049000472bde00f507b200a6018800602ce100c2
:1004a00008003a000049eb000201e80002003900b0
:1004b0003420ec0002f0a0008301e900f9ff3e00c7
:1004c000040037006128e100010032000082eb00e7
:1004d000040007001101ba000200e000e3ff3a0047
:1004e0000000060004d0a300e20f49001c00390000
:1004f000810278003549ba000201e80002003900a3
:100500003420ec0002f0a0008301e9000f0032006b
:100510002549ba000201e800020039003420ec004d
:1005200002f0a0008301e900080032000400e000ae
:100530000600320015c9ba000201e80002003900c5
:100540003420ec0002f0a0008301e9008180e80083
:1005500054a0b4000300e000e2ff3a0000000600ef
:100560009102ba00055978008301e900f7ff3200d3
:10057000c82ade00055978008301e900f3ff320044
:100580000400e000f1ff320011d9ba00eeff37009d
:080590000040da000000fe004b
:020000040000fa
:020000040001f9
:045fe000deff0000e0
:020000040000fa
:020000040001f9
:045fe8007fff000037
:020000040000fa
:020000040001f9
:045fec007dff000035
:020000040000fa
:020000040001f9
:045ff00078ff000036
:020000040000fa
:100008006204000068040000c80200006e040000da
:10001800740400007a040000c8020000c80200004e
:10002800c8020000c8020000c8020000c8020000a0
:10003800a2030000c8020000c8020000c8020000b5
:10004800c8020000c8020000c8020000c802000080
:10005800c8020000c8020000c8020000c802000070
:10006800c8020000c8020000c8020000c802000060
:10007800c8020000c8020000c8020000c802000050
:020000040000fa
:100598000000fa00103220001040780080407800f7
:1005a8003140b300103220000148780000322000aa
:1005b8009040780000ceb30080c070000032200068
:1005c800014878002043a9002143a90030322000c7
:1005d80090407800c0cfb30000c060000004a000c5
:1005e800313220008048780025e3a90050322000ed
:1005f8009040780000ceb30000c060000014a00056
:10060800513220008048780021c0b30040322000d9
:10061800014878002183a80020322000904078000b
:1006280030c8b30080c06000203220000148780044
:100638003303a800803220009040780000ceb30039
:1006480000c060003040b30081322000804878004c
:1006580028e3a9002603a900603220009040780012
:1006680090cfb30080c0600060322000014878005d
:1006780001a8a90021a8a90021e3a8002043a800f7
:100688000080fa00000006000000fa0000b0200018
:1006980090407800f0ccb30080c0600000b020002b
:1006a8000148780000b0200090407800c0cfb30027
:1006b80000c060000014a00001b02000804878004d
:1006c8000030200080007800c0b0200001087800c9
:1006d800f10f2000e0b0200001087800d1002000d0
:1006e80020b0200001087800000521008000780073
:1006f80040b0200001087800000521008000780043
:1007080060b02000010878000025210080007800f2
:1007180080b02000010878000025210080007800c2
:10072800a0b02000010878000088a9002088a8004f
:1007380001eba8000080fa00000006003600f8006f
:10074800809fbe00829fbe00849fbe00869fbe0021
:100758003200f8000000200090018800000000002e
:100768000800fa0080a280000000e00008003a00bb
:100778000005210020079800020020003207980099
:10078800e40147001300be0015000700060037000b
:1007980000252100000f78000200200012079800b1
:1007a8001e00be000e00070080a280000000a2000c
:1007b80080a2880040e020001060a2000088a90004
:1007c8000080fa003200f9004f03be004f02be005d
:1007d8004f01be004f00be003600f9000040060081
:1007e8000400fa00008fbe000080fa000000060036
:1007f8000000fa00610220006074200001087800ff
:100808004074200010407800f2c3b30082406000ba
:10081800407420000148780040742000904078001f
:1008280000ceb30080c0600040742000014878000a
:100838008000eb00807420000108780040a7a90020
:100848003200200081072000a00920003374200016
:100858008149780080497800824978002074200016
:1008680010007800120020006104200070052000ac
:1008780023742000814978008049780082497800f3
:10088800307420001040780002c7b3008240600036
:1008980000c3b30080cf5000f9ff3a002074200055
:1008a800104078000042b2000004e000fbff320074
:1008b80075ff070036ff0700ffff37000000fa004a
:1008c800c028a900ffff37000000fa00c068a9008f
:1008d800ffff37000000fa00c048a900ffff3700fb
:1008e8000000fa00c088a900ffff37000000fa00e6
:0808f800c0a8a900ffff3700b2
:020000040000fa
:1009000050140000020000008200000000000000ff
:100910005010000000020000800000005012000093
:0c09200000020000800000000000000049
:020000040000fa
:10092c0006cea90000cea9000000060004ceaa0045
:04093c0000000600b1
:00000001FF
