:040000008031112812
:10000800803120007F08F8000B198B1E0D288331E2
:10001800162378082000FF0009008801813124296F
:100028000034F4340134F4340134F4340134F43455
:100038000134F4340134F4340134F4340134F43444
:100048000134FA340034FA340034FA340034FA341F
:100058000034FA340034FA340034FA340034FA3410
:10006800003403340534073409340B340D340F34A9
:10007800013413341534173419341B341D341F3428
:02008800113431
:1002000000298131820703298631292E8631062E65
:100210008531E32D8531C02D85319D2D85317A2D98
:100220008531572D8531342D8531112D8431EE2CBA
:100230008431CB2C8431A82C8431852C8431622CE0
:1002400084313F2C84311C2C2030F901FA01FB0150
:10025000FC018400003085003B3086314C26813122
:10026000A030840000308500203086314C2681315A
:100270005530FD0020003C29482181316421813125
:100280008B172000411C41294110A82181314129AF
:1002900070302100990023008C018D018F019001A5
:1002A00021008C018D018E018F019001DE30200034
:1002B0008C008D01A7308E00FF308F00073090003A
:1002C000803021009500080007302000DC005C0829
:1002D00009070907A03EDB00023E86000F308701B8
:1002E0008105413181015B08023E8600F0308701C3
:1002F0008104413147308104F4228131FC3087018F
:100300008105F422813181115C085C075C07443E61
:1003100086001E30C03F0030C13FF4228131010809
:100320000F39A03881005C35203E860081014131C3
:100330008101DC03DC1F67294110C110BD212100B0
:100340001E088F3920389E009E170B118B1608004F
:100350008B12C1144111C001C001C2218131003A88
:100360000319B42932228131C00A4008083A031D1A
:10037000AD29BD210B118B1608001E30FC01C001F8
:10038000C2000800400840074007433EDF004035F8
:10039000203E860087014035303E84008501403F85
:1003A0000002DD000131413F003BDE00DE1F232A59
:1003B000DD01DE01232ACF228131031DE6295F08FA
:1003C000ED228131C1228131C13F0034C11000349E
:1003D0005F08860087010108FC39023881005F0848
:1003E000013E86002C30C03F0130C13F4115003432
:1003F00001238131DB00013FDC005E085C02031D4C
:10040000032A5D085B0203180134E829CF228131F9
:10041000031D132A5F08ED2281315F0886008115D4
:10042000C1228131F52908238131DB00013FDC0045
:100430005E02031D1D2A5B085D02031800345F087D
:10044000ED228131F6295F08860087010108033912
:100450000319DB29013A0319F829033A0319062A7B
:10046000F72908004035303E86008701403FE20012
:10047000413FE300400840074007433E8600811D9E
:10048000672A40350F23813162085B02DD00630873
:100490005C3BDE0001238131DF00013FE000E036FC
:1004A000DF0C6008803AE1005E08803A6102031DBB
:1004B0005B2A5D085F020318672A2000DC22813175
:1004C0000115400840074007433E86008111200087
:1004D000DC228131011D922A4008FA228131103834
:1004E000810008238131DB00013FDC004035203EE4
:1004F0008600403FDD00413FDE0062085D02DF0014
:1005000063085E3BE000803AE1005C08803A6102EB
:10051000031D8C2A5B085F020318922A2000DC224C
:10052000813101112000DC228131010E0F39DB0005
:10053000DB03DB0E01085B060F395B068100010E51
:100540000F39031D08004008FA228131A0388100CC
:1005500040350F238131E32281315B088102413133
:100560005C08813B7F316308DC006208DB00E3222A
:10057000813187015B08810741315C08813D7F3112
:1005800008004035303E8600403FDB00413FDC0044
:100590004035203E86005B08C03F5C0808005F08CD
:1005A000013E860001308701810241310030813BEC
:1005B0007F31160001040800400840074007433E11
:1005C000860087010800DC36DB0CDC36DB0CDC3611
:1005D000DB0C4035203E86000800860087010108BC
:1005E000FC390138810008005C085C075C07433E69
:1005F0008600080040074007433E860001080F3987
:1006000008004035153E840080308500003F08001A
:100610004035253E840080308500003F0800203EA4
:100620008600403FDB00413FDC000800200040081E
:10063000353E80310A008131012183317C08031964
:10064000232B79238331D6238331F92320004008DB
:100650003D3E80310A008131012183317C0803193C
:10066000332BDE238331D6238331012483312000D1
:1006700016248331C00A4008083A031D6D2BC001BF
:10068000C20B6D2B1E30C20079238331DE238331F0
:100690001624833186008701403FF500413FF60074
:1006A000423FF700F736F60CF50C4035303E860039
:1006B0007508C03F7608C13F7C0886000030810580
:1006C000413181054131F03081057E31C00A400859
:1006D000083A031D482B0B244114200003107D0C05
:1006E0000318B43AFD003F392000950195070B111E
:1006F000080010248331F200413FF3000F30F20E66
:10070000F30EF2057308F039F2040F30F3057208A6
:100710000A3EF0000030733DF1007A087102031DBB
:10072000932B7908700203189A2B0A30F2070318EA
:10073000F30AB72B003073020B3003197202031C4B
:10074000B32B7208F63EF000FF30733DF1007A02E1
:10075000031DAC2B700879020318B32B0A30F20288
:100760000030F33BB72B7A08F3007908F2007C08DD
:10077000023E86000F3087018105413181017308F7
:10078000F1007208F000F030F00EF10EF105700883
:100790000F39F104F030F0057C08023E8600870135
:1007A000700881044131710881040800FF30FB00AA
:1007B00021009D1C0800FB0BD82B0800102483315E
:1007C000F000413FF1000430F136F00C890BE42BCE
:1007D0007008F2007108F300F4017C0886008701BC
:1007E0007208810741317308813D41317408813DB0
:1007F00008001C08FA00F9011B08F9070318FA0A97
:10080000080004301C04F00079081B02F9007A0883
:10081000703BFA0008001E30FC01C001C200080055
:100820007C08023E86008701403F08004008090717
:100830000907A03EFC00080022001010210015301E
:100840009D00103086000130870090308400003019
:10085000850020000530FB00FB0B2C2C21001930FB
:1008600080149D0020000530FB00FB0B352C21007F
:100870009D1400000000000081108010080022007C
:100880008C12210011309D0010308600013087004D
:10089000903084000030850020000530FB00FB0B09
:1008A0004F2C2100153000149D0020000530FB0066
:1008B000FB0B582C21009D140000000000000110CB
:1008C0000010080022008C1121000D309D000C301A
:1008D0008600013087008C308400003085002000C5
:1008E0000530FB00FB0B722C2100113080169D009F
:1008F00020000530FB00FB0B7B2C21009D14000029
:100900000000000081128012080022000C1121005A
:1009100009309D000C308600013087008C30840047
:100920000030850020000530FB00FB0B952C2100DA
:100930000D3080159D0020000530FB00FB0B9E2C28
:1009400021009D14000000000000811180110800AA
:1009500022008C10210005309D000C3086000130F3
:1009600087008C3084000030850020000530FB00BB
:10097000FB0BB82C2100093000159D00200005302C
:10098000FB00FB0BC12C21009D14000000000000A7
:1009900001110011080022000C10210001309D00FF
:1009A0000C308600013087008C30840000308500D8
:1009B00020000530FB00FB0BDB2C210005308014F0
:1009C0009D0020000530FB00FB0BE42C21009D1452
:1009D00000000000000081108010080022001011AB
:1009E00021001D309D000C308600013087008C30C6
:1009F00084000030850020000530FB00FB0BFE2C3E
:100A00002100013000149D0020000530FB00FB0B8D
:100A1000072D21009D1400000000000001100010AF
:100A2000080022009010210019309D00103086002F
:100A300001308700903084000030850020000530B0
:100A4000FB00FB0B212D21001D3000159D00200017
:100A50000530FB00FB0B2A2D21009D140000000037
:100A600000000111001108002200101421001530AF
:100A70009D001030860001308700903084000030E7
:100A8000850020000530FB00FB0B442D21001930B0
:100A900080149D0020000530FB00FB0B4D2D210034
:100AA0009D14000000000000811480100800220046
:100AB0008C16210011309D00103086000130870017
:100AC000903084000030850020000530FB00FB0BD7
:100AD000672D2100153000149D0020000530FB001B
:100AE000FB0B702D21009D1400000000000001147C
:100AF0000010080022008C1521000D309D000C30E4
:100B00008600013087008C30840000308500200092
:100B10000530FB00FB0B8A2D2100113080169D0053
:100B200020000530FB00FB0B932D21009D140000DD
:100B30000000000081168012080022000C15210020
:100B400009309D000C308600013087008C30840015
:100B50000030850020000530FB00FB0BAD2D21008F
:100B60000D3080159D0020000530FB00FB0BB62DDD
:100B700021009D1400000000000081158011080074
:100B800022008C14210005309D000C3086000130BD
:100B900087008C3084000030850020000530FB0089
:100BA000FB0BD02D2100093000159D0020000530E1
:100BB000FB00FB0BD92D21009D140000000000005C
:100BC00001150011080022000C14210001309D00C5
:100BD0000C308600013087008C30840000308500A6
:100BE00020000530FB00FB0BF32D210005308014A5
:100BF0009D0020000530FB00FB0BFC2D21009D1407
:100C00000000000000008114801008002200101570
:100C100021001D309D000C308600013087008C3093
:100C200084000030850020000530FB00FB0B162EF1
:100C30002100013000149D0020000530FB00FB0B5B
:100C40001F2E21009D140000000000000114001060
:100C5000080022009014210019309D0010308600F9
:100C6000013087009030840000308500200005307E
:100C7000FB00FB0B392E21001D3000159D002000CC
:100C80000530FB00FB0B422E21009D1400000000EC
:100C90000000011500110800640080010131890B7A
:040CA0004D2E0034A1
:020000040001F9
:04000E008CC9FFDBBF
:00000001FF
