:020000040000fa
:080000000002040000000000f2
:020000040000fa
:100400002f8520000ebf27000e018800000000008d
:100410000c000700e0402000010020001100070050
:10042000000020000000e000020032000000020096
:10043000000000007e030200000000000040da001f
:100440000000fe004440a900000020000000e00081
:100450000300320000002000a00188004440a800f2
:100460000000060091018800800078000000eb0089
:1004700015003700e280400032a0b4009101ba00bc
:10048000e280400032a0b4009102ba00e280400055
:1004900032a0b4000002eb00472bde00f507b200eb
:1004a000602ce10004003a000059eb008301e900f0
:1004b000fdff3e00040037006128e100010032002a
:1004c0000082eb00040007001101ba000200e00006
:1004d000e8ff3a00000006003159ba008301e90044
:1004e0000c0032002159ba008301e90008003200f3
:1004f0000400e00003003a00e280400032a0b400b3
:10050000f5ff370011d9ba008301e900faff3a007c
:100510008100e800e180400032a0b4000000060045
:080520000040da000000fe00bb
:020000040000fa
:0200000401f009
:04000800ffff0000f6
:020000040000fa
:0200000401f009
:04000c0078ff000079
:020000040000fa
:0200000401f009
:040010007dff000070
:020000040000fa
:0200000401f009
:040014007fff00006a
:020000040000fa
:0200000401f009
:04001c00dfff000002
:020000040000fa
:1000080090020000d2030000d8030000de030000c5
:10001800e4030000ea0300009002000090020000e0
:100028009002000090020000900200009002000080
:1000380040030000900200009002000090020000bf
:100048009002000090020000900200009002000060
:100058009002000090020000900200009002000050
:100068009002000090020000900200009002000040
:100078009002000090020000900200009002000030
:100088009002000090020000900200009002000020
:100098009002000090020000900200009002000010
:1000a8009002000090020000900200009002000000
:1000b80090020000900200009002000090020000f0
:1000c80090020000900200009002000090020000e0
:1000d80090020000900200009002000090020000d0
:1000e80090020000900200009002000090020000c0
:1000f80090020000900200009002000090020000b0
:10010800900200009002000090020000900200009f
:10011800900200009002000090020000900200008f
:10012800900200009002000090020000900200007f
:10013800900200009002000090020000900200006f
:10014800900200009002000090020000900200005f
:10015800900200009002000090020000900200004f
:10016800900200009002000090020000900200003f
:10017800900200009002000090020000900200002f
:10018800900200009002000090020000900200001f
:10019800900200009002000090020000900200000f
:1001a80090020000900200009002000090020000ff
:1001b80090020000900200009002000090020000ef
:1001c80090020000900200009002000090020000df
:1001d80090020000900200009002000090020000cf
:1001e80090020000900200009002000090020000bf
:0801f8009002000090020000db
:020000040000fa
:1002080090020000f0030000f6030000fc03000069
:1002180002040000080400009002000090020000a0
:10022800900200009002000090020000900200007e
:1002380040030000900200009002000090020000bd
:10024800900200009002000090020000900200005e
:10025800900200009002000090020000900200004e
:10026800900200009002000090020000900200003e
:10027800900200009002000090020000900200002e
:10028800900200009002000090020000900200001e
:10029800900200009002000090020000900200000e
:1002a80090020000900200009002000090020000fe
:1002b80090020000900200009002000090020000ee
:1002c80090020000900200009002000090020000de
:1002d80090020000900200009002000090020000ce
:1002e80090020000900200009002000090020000be
:1002f80090020000900200009002000090020000ae
:10030800900200009002000090020000900200009d
:10031800900200009002000090020000900200008d
:10032800900200009002000090020000900200007d
:10033800900200009002000090020000900200006d
:10034800900200009002000090020000900200005d
:10035800900200009002000090020000900200004d
:10036800900200009002000090020000900200003d
:10037800900200009002000090020000900200002d
:10038800900200009002000090020000900200001d
:10039800900200009002000090020000900200000d
:1003a80090020000900200009002000090020000fd
:1003b80090020000900200009002000090020000ed
:1003c80090020000900200009002000090020000dd
:1003d80090020000900200009002000090020000cd
:1003e80090020000900200009002000090020000bd
:0803f8009002000090020000d9
:020000040000fa
:100528000000fa0021c3bf003040b30021e3b70048
:10053800013220009140780000ceb30000c0700066
:1005480020e3b7002043a9002143a9002183a80084
:10055800213220009140780030ccb30000c0600008
:1005680022e3b7003132200091407800c0cfb300b9
:1005780000c060000004a00023e3b70025e3a90041
:10058800513220009140780000ceb30000c06000d6
:100598000014a00025e3b70020c0b30024e3b7008f
:1005a800813220009140780000ceb30000c0600086
:1005b80028e3b70028e3a9002603a9006132200038
:1005c8009140780090cfb30000c0600026e3b700e8
:1005d8000080eb00601b88000080eb006019880039
:1005e8000080eb00501988002c03a90085a0a90001
:1005f80095a0a90021e3a8002043a8000080fa00e4
:10060800000006000000fa00c0c2a900c4c2a90088
:100618000138200091407800f0ccb30000c06000a1
:1006280080e3b7000138200091407800c0cfb300c4
:1006380000c060000014a00080e3b7000030200074
:10064800401c8800f00f2000501c8800d0002000bb
:10065800101c880000602000201c8800004020003a
:10066800301c88008480a9009480a80081e3a80039
:100678000080fa00000006003600f800809fbe00e7
:10068800829fbe00849fbe00869fbe000000fa00c5
:10069800804280000000e00003003a0000e02700ec
:1006a800100007000200370000c027000d000700f7
:1006b800804280000000a20080428800402c200078
:1006c8001060a2008480a9000080fa004f03be00d9
:1006d8004f02be004f01be004f00be003600f900b9
:1006e800004006000200fa00000f78000080fa00bf
:1006f800000006000000fa0060022000303a88007e
:1007080044c7bf00f043b20044e7b700417420007b
:100718009140780000ceb30000c0600044e7b70005
:100728000000eb00403a880040a7a90032002000f2
:1007380081072000a0092000337420008149780037
:100748008049780082497800103a80001200200021
:10075800610420007005200023742000814978007e
:10076800804978008249780043c7bf0002c7b300b8
:100778008240600000c3b30080cf5000faff3a0007
:1007880042c7bf000042b2000004e000fcff320094
:100798009cff070062ff0700ffff37000000fa0018
:1007a8008020a900ffff37000000fa008060a90040
:1007b800ffff37000000fa008040a900ffff370064
:1007c8000000fa008080a900ffff37000000fa004f
:1007d80080a0a900ffff37000000fa008020a900d0
:1007e800ffff37000000fa008060a900ffff370014
:1007f8000000fa008040a900ffff37000000fa005f
:100808008080a900ffff37000000fa0080a0a9003f
:04081800ffff3700a7
:020000040000fa
:10081c005008000002000000020000000000000070
:10082c00007e00000002000000000000007c0000c0
:0c083c00000200000000000000000000ae
:00000001FF
